:100000000C942A000C943C090C9469090C949609F0
:100010000C9447000C9447000C9447000C94470044
:100020000C9447000C9447000C9447000C94470034
:100030000C9447000C9481070C94B1070C94CC07E6
:100040000C9447000C9447000C9447000C94470014
:100050000C94470011241FBECFE5D8E0DEBFCDBF12
:100060001FE0A8E6B1E001C01D92AE38B107E1F78C
:1000700011E0A0E6B0E0E2E8F9E202C005900D92DE
:10008000A836B107D9F70E9402140C94BF140C943F
:100090000000EF92FF920F931F937B018C0120E0F1
:1000A00030E040E05FE40E94490388238CF0C801FF
:1000B000B70120E030E040E05FE40E94C1010E940F
:1000C000A9039B01AC01205030404040504806C07D
:1000D000C801B7010E94A9039B01AC01B901CA0183
:1000E0001F910F91FF90EF900895A0E0B0E0EBE733
:1000F000F0E00C948814DC012B01FA019C91923001
:1001000008F439C1EB018881823008F433C194309E
:1001100069F4843009F02FC111969C91119789815F
:10012000981709F428C1A0E6B0E025C1843009F48D
:1001300021C18230A9F4923009F01DC19A01AD01AC
:1001400088E0EA010990AE01E90109929E0181501F
:10015000C1F7E201898111969C918923818308C1AD
:10016000923009F407C112962D903C901397EB0141
:100170008A819B811496AD90BD90CD90DC901797AD
:10018000EC80FD800E811F819101281B390BB90184
:1001900037FF04C066277727621B730B6032710537
:1001A0000CF061C0121613066CF537014801062EDB
:1001B00004C096948794779467940A94D2F721E0C8
:1001C00030E040E050E004C0220F331F441F551FB1
:1001D0006A95D2F721503040404050402E213F21B7
:1001E00040235123211531054105510521F021E01E
:1001F00030E040E050E079018A01E628F72808293C
:1002000019293CC0232BD1F1260E371E350146019A
:10021000062E04C096948794779467940A94D2F734
:1002200021E030E040E050E004C0220F331F441FC3
:10023000551F6A95D2F721503040404050402A2146
:100240003B214C215D21211531054105510521F04E
:1002500021E030E040E050E059016A01A628B728CB
:10026000C828D9280BC0821593052CF01C01AA249C
:10027000BB24650103C0EE24FF24870111969C91E5
:10028000D20111968C91981709F445C0992339F041
:10029000A80197012A193B094C095D0906C0A6016E
:1002A00095012E193F09400B510B57FD08C01182D3
:1002B0003382228224833583468357831DC081E0A5
:1002C00081833382228288279927DC01821B930B4A
:1002D000A40BB50B84839583A683B7830DC0220F2F
:1002E000331F441F551F24833583468357838281E0
:1002F000938101979383828324813581468157813D
:10030000DA01C9010197A109B1098F5F9F4FAF4F72
:10031000BF4328F30BC0918333822282EA0CFB1C7B
:100320000C1D1D1DE482F5820683178383E0808304
:10033000248135814681578157FF1AC0C901AA27F8
:1003400097FDA095BA2F81709070A070B0705695EF
:10035000479537952795822B932BA42BB52B848318
:100360009583A683B7838281938101969383828349
:10037000DF0101C0D201CD01CDB7DEB7E2E10C94BF
:10038000A414A0E2B0E0E7ECF1E00C9494146983CB
:100390007A838B839C832D833E834F835887E9E048
:1003A000EE2EF12CEC0EFD1ECE010196B7010E943F
:1003B0009A058E010F5E1F4FCE010596B8010E946F
:1003C0009A058A8991E089278A8BC701B801AE0115
:1003D000475E5F4F0E9475000E94C504A096E6E04C
:1003E0000C94B014A0E2B0E0E8EFF1E00C949414A7
:1003F00069837A838B839C832D833E834F835887C5
:10040000F9E0EF2EF12CEC0EFD1ECE010196B701A6
:100410000E949A058E010F5E1F4FCE010596B8010E
:100420000E949A05C701B801AE01475E5F4F0E9466
:1004300075000E94C504A096E6E00C94B014A0E2FA
:10044000B0E0E5E2F2E00C94881469837A838B8350
:100450009C832D833E834F835887CE010196BE0136
:10046000675F7F4F0E949A05CE010596BE016F5EC1
:100470007F4F0E949A059985923088F08989823051
:10048000C8F0943019F4823051F404C0843029F457
:10049000923081F480E690E0C6C0923049F420E0CA
:1004A0009A858A89981321E02A87CE010996BBC0D4
:1004B000823049F420E09A858A89981321E02A8BBA
:1004C000CE014196B0C02D843E844F8458886D88FB
:1004D0007E888F88988CEE24FF248701AA24BB2471
:1004E000650140E050E060E070E0E0E0F0E0C10174
:1004F00081709070892BE9F0E60CF71C081D191D1E
:100500009A01AB012A0D3B1D4C1D5D1D80E090E062
:10051000A0E0B0E0E614F7040805190520F481E036
:1005200090E0A0E0B0E0BA01A901480F591F6A1F8E
:100530007B1FAA0CBB1CCC1CDD1C97FE08C081E0F5
:1005400090E0A0E0B0E0A82AB92ACA2ADB2A3196B6
:10055000E032F10549F0660C771C881C991C569412
:10056000479437942794C3CFFA85EA892B893C892D
:100570008B859C85280F391F2E5F3F4F17C0CA01FE
:1005800081709070892B61F016950795F794E79428
:1005900080E090E0A0E0B0E8E82AF92A0A2B1B2BC3
:1005A00076956795579547952F5F3F4F77FDE7CF36
:1005B0000CC0440F551F661F771F17FD4160EE0CDE
:1005C000FF1C001F111F21503040403090E05907A0
:1005D00090E0690790E4790760F32B8F3C8FDB0193
:1005E000CA018F779070A070B07080349105A1051A
:1005F000B10561F447FD0AC0E114F10401051105DC
:1006000029F0405C5F4F6F4F7F4F40781A8EFE1786
:1006100011F081E08A8F4D8F5E8F6F8F78A383E01A
:10062000898FCE0149960E94C504A096E2E10C9400
:10063000A414A8E1B0E0EFE1F3E00C949414698312
:100640007A838B839C832D833E834F83588789E0F5
:10065000E82EF12CEC0EFD1ECE010196B7010E9492
:100660009A058E010F5E1F4FCE010596B8010E94BC
:100670009A058985823040F08989823028F0C70147
:10068000B8010E94120601C08FEF6896E6E00C9454
:10069000B014A8E1B0E0EFE4F3E00C9494146983A3
:1006A0007A838B839C832D833E834F83588789E095
:1006B000E82EF12CEC0EFD1ECE010196B7010E9432
:1006C0009A058E010F5E1F4FCE010596B8010E945C
:1006D0009A058985823040F08989823028F0C701E7
:1006E000B8010E94120601C08FEF6896E6E00C94F4
:1006F000B014A8E1B0E0EFE7F3E00C949414698340
:100700007A838B839C832D833E834F83588789E034
:10071000E82EF12CEC0EFD1ECE010196B7010E94D1
:100720009A058E010F5E1F4FCE010596B8010E94FB
:100730009A058985823040F08989823028F0C70186
:10074000B8010E94120601C081E06896E6E00C94B0
:10075000B014ACE0B0E0EFEAF3E00C9498146983D5
:100760007A838B839C83CE010196BE016B5F7F4FA2
:100770000E949A058D81823061F1823050F184307F
:1007800021F48E81882351F12EC02F81388537FDC9
:1007900020C06E812F3131051CF06623F9F023C093
:1007A0008EE190E0821B930B29853A854B855C8511
:1007B00004C056954795379527958A95D2F76623B5
:1007C000B1F050954095309521953F4F4F4F5F4F79
:1007D0000EC020E030E040E050E009C02FEF3FEFD6
:1007E0004FEF5FE704C020E030E040E050E8B9019F
:1007F000CA012C96E2E00C94B414A8E0B0E0E3E067
:10080000F4E00C9490147B018C0161157105810555
:10081000910519F482E0898360C083E089838EE1C9
:10082000C82ED12CDC82CB82ED82FE820F8318870A
:10083000C801B7010E947604FC013197F7FF3BC065
:10084000222733272E1B3F0B57016801022E04C0BD
:10085000D694C794B794A7940A94D2F740E050E096
:1008600060E070E081E090E0A0E0B0E004C0880FBC
:10087000991FAA1FBB1F2A95D2F70197A109B10999
:100880008E219F21A023B1230097A105B10521F05E
:1008900041E050E060E070E04A295B296C297D2945
:1008A0004D835E836F8378878EE190E08E1B9F0B74
:1008B0009C838B8312C0309781F00E2E04C0EE0C07
:1008C000FF1C001F111F0A94D2F7ED82FE820F83D6
:1008D0001887CE1ADF0ADC82CB821A82CE010196FB
:1008E0000E94C5042896EAE00C94AC14EF92FF92A3
:1008F0000F931F937B018C0180E0E81680E0F806DF
:1009000081E0080780E0180788F48FEFE816F1040B
:100910000105110531F028F088E090E0A0E0B0E09A
:1009200017C080E090E0A0E0B0E012C080E0E816E0
:1009300080E0F80680E0080781E0180728F088E1E9
:1009400090E0A0E0B0E004C080E190E0A0E0B0E082
:1009500020E230E040E050E0281B390B4A0B5B0BF3
:1009600004C016950795F794E7948A95D2F7F70196
:10097000E859FF4F8081281B310941095109C901FC
:100980001F910F91FF90EF900895DF92EF92FF92E9
:100990000F931F93FC01E480F58006811781D180BD
:1009A0008081823048F480E090E0A0E1B0E0E82A65
:1009B000F92A0A2B1B2BA5C0843009F49FC0823072
:1009C00021F4EE24FF24870105C0E114F1040105A0
:1009D000110519F4E0E0F0E096C0628173819FEFA9
:1009E000623879070CF05BC022E83FEF261B370B1B
:1009F0002A3131052CF020E030E040E050E02AC000
:100A0000B801A701022E04C07695679557954795C2
:100A10000A94D2F781E090E0A0E0B0E004C0880F33
:100A2000991FAA1FBB1F2A95D2F70197A109B109E7
:100A30008E219F21A023B1230097A105B10521F0AC
:100A400081E090E0A0E0B0E09A01AB01282B392BC7
:100A50004A2B5B2BDA01C9018F779070A070B070C0
:100A600080349105A105B10539F427FF09C0205C48
:100A70003F4F4F4F5F4F04C0215C3F4F4F4F5F4F81
:100A8000E0E0F0E02030A0E03A07A0E04A07A0E470
:100A90005A0710F0E1E0F0E079018A0127C06038E0
:100AA000710564F5FB01E158FF4FD801C7018F774D
:100AB0009070A070B07080349105A105B10539F433
:100AC000E7FE0DC080E490E0A0E0B0E004C08FE35A
:100AD00090E0A0E0B0E0E80EF91E0A1F1B1F17FF10
:100AE00005C016950795F794E794319687E016951B
:100AF0000795F794E7948A95D1F705C0EE24FF2473
:100B00008701EFEFF0E06E2F679566276795902FCE
:100B10009F77D794DD24D7948E2F8695492F462B27
:100B2000582F5D29B701CA011F910F91FF90EF90D7
:100B3000DF900895FC01DB01408151812281622F09
:100B40006F7770E0221F2227221F9381892F880F41
:100B5000822B282F30E0991F9927991F11969C937B
:100B6000119721153105A9F541155105610571054B
:100B700011F482E037C082E89FEF13969C938E9326
:100B800012979A01AB0167E0220F331F441F551FD4
:100B90006A95D1F783E08C930DC0220F331F441F59
:100BA000551F12968D919C911397019713969C93C4
:100BB0008E931297203080E0380780E0480780E469
:100BC000580758F314962D933D934D935C931797C4
:100BD00008952F3F310579F44115510561057105DF
:100BE00019F484E08C93089564FF03C081E08C9332
:100BF00012C01C9210C02F57304013963C932E9376
:100C0000129783E08C9387E0440F551F661F771F70
:100C10008A95D1F7706414964D935D936D937C9390
:100C2000179708951F93DC01FB019C91923008F403
:100C300047C08081823008F443C0943051F411964B
:100C40001C91843099F58181682F70E0611B7109D6
:100C50003FC0843021F0923031F48230B9F181818B
:100C6000882389F12DC011961C9111978230F1F0E3
:100C700081811817D9F412962D913C911397828196
:100C800093818217930794F028173907BCF01496C4
:100C90008D919D910D90BC91A02D2481358146812F
:100CA0005781281739074A075B0718F4112341F0C9
:100CB0000AC082179307A407B50740F4112319F05F
:100CC00061E070E005C06FEF7FEF02C060E070E0B0
:100CD000CB011F910895DF93CF93CDB7DEB7E9E243
:100CE000F0E083E38083E0E4F0E01082A0E4B0E091
:100CF000E0E4F0E080818F7480688C93A0E4B0E041
:100D0000E0E4F0E08081877780688C93A0E4B0E035
:100D1000E0E4F0E0808186688C93AAE2B0E0EAE249
:100D2000F0E080818B7F8C9383E060E040E00E9464
:100D3000C30983E061E041E00E94C309AAE2B0E098
:100D4000EAE2F0E0808180618C93AAE2B0E0EAE21E
:100D5000F0E0808188608C93CF91DF910895DF93DC
:100D6000CF930F92CDB7DEB78983EBE2F0E08081BD
:100D7000882F90E0807290700097B9F3ECE2F0E079
:100D8000898180830F90CF91DF910895DF93CF9376
:100D90000F92CDB7DEB789830E948808AAE2B0E03F
:100DA000EAE2F0E0808180628C938981809368011F
:100DB0000F90CF91DF910895DF93CF9300D000D0B3
:100DC00000D0CDB7DEB79E838D8319821A821B8235
:100DD0001C8215C029813A818D819E81FC01E20F20
:100DE000F31F80810E94AF0689819A81AB81BC810B
:100DF0000196A11DB11D89839A83AB83BC83298190
:100E00003A818D819E81FC01E20FF31F808188234E
:100E100009F726960FB6F894DEBF0FBECDBFCF916F
:100E2000DF910895DF93CF93CDB7DEB7EBE2F0E02B
:100E300080818823DCF7ECE2F0E08081CF91DF91C4
:100E400008950F931F93DF93CF9300D00F92CDB7E8
:100E5000DEB79B838A8319828981282F30E08A81BB
:100E60009B818C01020F131F0E941207F8018083DF
:100E70000FC089818F5F89838981282F30E08A8123
:100E80009B818C01020F131F0E941207F8018083BF
:100E90008981282F30E08A819B81FC01E20FF31FBA
:100EA0008081882F90E0009721F78981282F30E0FA
:100EB0008A819B81FC01E20FF31F10820F900F903B
:100EC0000F90CF91DF911F910F910895DF93CF93F2
:100ED00000D0CDB7DEB79A8389830E948808AAE242
:100EE000B0E0EAE2F0E0808180688C9389819A81A9
:100EF00090937701809376010F900F90CF91DF91BF
:100F000008951F920F920FB60F9211242F933F93C3
:100F10004F935F936F937F938F939F93AF93BF9301
:100F2000EF93FF93DF93CF93CDB7DEB7E0917601D8
:100F3000F0917701ACE2B0E08C910995CF91DF910F
:100F4000FF91EF91BF91AF919F918F917F916F91A1
:100F50005F914F913F912F910F900FBE0F901F9077
:100F600018951F920F920FB60F9211248F93EF9343
:100F7000FF93DF93CF93CDB7DEB7ECE2F0E0809143
:100F800068018083CF91DF91FF91EF918F910F9056
:100F90000FBE0F901F9018951F920F920FB60F92D1
:100FA0001124DF93CF93CDB7DEB7CF91DF910F90B0
:100FB0000FBE0F901F901895DF93CF93CDB7DEB77C
:100FC000E0E2F0E082E08083E2E2F0E082E0808331
:100FD000E6E5F0E084E08083CF91DF910895DF9330
:100FE000CF93CDB7DEB7E6E5F0E084EA8083E6E5AF
:100FF000F0E080818823DCF7CF91DF910895DF93C3
:10100000CF93CDB7DEB7E6E5F0E084E98083CF91FA
:10101000DF910895DF93CF930F92CDB7DEB7898329
:10102000E3E2F0E089818083E6E5F0E084E8808314
:10103000E6E5F0E080818823DCF70F90CF91DF9127
:101040000895DF93CF9300D0CDB7DEB789836A834D
:10105000E3E2F0E08981882F90E0880F991F982FB4
:101060008A81892B8083E6E5F0E084E88083E6E5E9
:10107000F0E080818823DCF70F900F90CF91DF9113
:101080000895DF93CF93CDB7DEB7E6E5F0E084ECCB
:101090008083E6E5F0E080818823DCF7E3E2F0E09E
:1010A0008081CF91DF910895DF93CF93CDB7DEB7E5
:1010B000E6E5F0E084E88083E6E5F0E080818823DF
:1010C000DCF7E3E2F0E08081CF91DF910895DF93D8
:1010D000CF93CDB7DEB7A6E5B0E0E6E5F0E08081DE
:1010E00080688C93E6E5F0E080818823DCF7E3E21A
:1010F000F0E08081CF91DF910895DF93CF93CDB75A
:10110000DEB7E1E2F0E08081887FCF91DF91089542
:10111000DF93CF93CDB7DEB7AFE5B0E0EFE5F0E01A
:10112000808180688C93CF91DF910895DF93CF9376
:10113000CDB7DEB7AFE5B0E0EFE5F0E080818F77C7
:101140008C93CF91DF910895DF93CF93CDB7DEB726
:1011500083E062E040E00E94C30983E062E041E096
:101160000E94DB0AABE5B0E0EBE5F0E08081806453
:101170008C93A5E5B0E0E5E5F0E080818C7F8260AE
:101180008C93CF91DF910895DF93CF93CDB7DEB7E6
:1011900083E063E040E00E94C30983E063E041E054
:1011A0000E94DB0AABE5B0E0EBE5F0E0808180680F
:1011B0008C93A5E5B0E0E5E5F0E08081837F886071
:1011C0008C93CF91DF910895DF93CF93CDB7DEB7A6
:1011D00081E062E040E00E94C30981E062E041E01A
:1011E0000E94DB0AABE5B0E0EBE5F0E080818062D5
:1011F0008C93A4E5B0E0E4E5F0E080818F7B8C93F4
:10120000CF91DF910895DF93CF9300D000D00F925C
:10121000CDB7DEB79A8389836B838B81282F30E02B
:101220003D832C838C819D818130910581F02C81BF
:101230003D812230310591F08C819D810097A1F490
:1012400089819A8190937B0180937A010DC0898175
:101250009A81909379018093780106C089819A815F
:1012600090937D0180937C010F900F900F900F90D1
:101270000F90CF91DF9108951F920F920FB60F92AA
:1012800011242F933F934F935F936F937F938F938B
:101290009F93AF93BF93EF93FF93DF93CF93CDB71C
:1012A000DEB7E0917A01F0917B010995CF91DF9152
:1012B000FF91EF91BF91AF919F918F917F916F912E
:1012C0005F914F913F912F910F900FBE0F901F9004
:1012D00018951F920F920FB60F9211242F933F93E0
:1012E0004F935F936F937F938F939F93AF93BF932E
:1012F000EF93FF93DF93CF93CDB7DEB7E091780103
:10130000F09179010995CF91DF91FF91EF91BF9114
:10131000AF919F918F917F916F915F914F913F918D
:101320002F910F900FBE0F901F9018951F920F9244
:101330000FB60F9211242F933F934F935F936F93A8
:101340007F938F939F93AF93BF93EF93FF93DF931D
:10135000CF93CDB7DEB7E0917C01F0917D01099587
:10136000CF91DF91FF91EF91BF91AF919F918F91BD
:101370007F916F915F914F913F912F910F900FBE91
:101380000F901F901895DF93CF9300D000D00F924D
:10139000CDB7DEB789836A834B838981282F30E0FC
:1013A0003D832C836C817D8161307105D1F18C810D
:1013B0009D818230910534F42C813D8121153105C8
:1013C00071F094C06C817D816230710509F44BC06D
:1013D0008C819D818330910509F467C087C0AAE3A1
:1013E000B0E0EAE3F0E08081482F8A81282F30E0E6
:1013F00081E090E002C0880F991F2A95E2F780955E
:1014000048238B81282F30E08A81882F90E0B90112
:1014100002C0660F771F8A95E2F7CB01842B8C936D
:1014200065C0A7E3B0E0E7E3F0E08081482F8A8160
:10143000282F30E081E090E002C0880F991F2A95A4
:10144000E2F7809548238B81282F30E08A81882F0E
:1014500090E0B90102C0660F771F8A95E2F7CB01D1
:10146000842B8C9343C0A4E3B0E0E4E3F0E08081FC
:10147000482F8A81282F30E081E090E002C0880F59
:10148000991F2A95E2F7809548238B81282F30E019
:101490008A81882F90E0B90102C0660F771F8A9574
:1014A000E2F7CB01842B8C9321C0A1E3B0E0E1E310
:1014B000F0E08081482F8A81282F30E081E090E0A1
:1014C00002C0880F991F2A95E2F7809548238B81E7
:1014D000282F30E08A81882F90E0B90102C0660F82
:1014E000771F8A95E2F7CB01842B8C930F900F9096
:1014F0000F900F900F90CF91DF910895DF93CF93CE
:1015000000D000D0CDB7DEB789836A838981282FC8
:1015100030E03C832B838B819C818130910509F1E4
:101520002B813C81223031052CF48B819C810097EA
:1015300061F03AC02B813C8122303105F1F08B8182
:101540009C818330910529F12FC08A81882321F461
:10155000EAE3F0E0108228C0EAE3F0E08FEF808356
:1015600023C08A81882321F4E7E3F0E010821CC0C5
:10157000E7E3F0E08FEF808317C08A81882321F4AE
:10158000E4E3F0E0108210C0E4E3F0E08FEF80834A
:101590000BC08A81882321F4E1E3F0E0108204C0CB
:1015A000E1E3F0E08FEF80830F900F900F900F90AA
:1015B000CF91DF910895DF93CF9300D000D00F92A9
:1015C000CDB7DEB789836A834B838981282F30E0CA
:1015D0003D832C836C817D8161307105D1F18C81DB
:1015E0009D818230910534F42C813D812115310596
:1015F00071F094C06C817D816230710509F44BC03B
:101600008C819D818330910509F467C087C0ABE36D
:10161000B0E0EBE3F0E08081482F8A81282F30E0B2
:1016200081E090E002C0880F991F2A95E2F780952B
:1016300048238B81282F30E08A81882F90E0B901E0
:1016400002C0660F771F8A95E2F7CB01842B8C933B
:1016500065C0A8E3B0E0E8E3F0E08081482F8A812C
:10166000282F30E081E090E002C0880F991F2A9572
:10167000E2F7809548238B81282F30E08A81882FDC
:1016800090E0B90102C0660F771F8A95E2F7CB019F
:10169000842B8C9343C0A5E3B0E0E5E3F0E08081C8
:1016A000482F8A81282F30E081E090E002C0880F27
:1016B000991F2A95E2F7809548238B81282F30E0E7
:1016C0008A81882F90E0B90102C0660F771F8A9542
:1016D000E2F7CB01842B8C9321C0A2E3B0E0E2E3DC
:1016E000F0E08081482F8A81282F30E081E090E06F
:1016F00002C0880F991F2A95E2F7809548238B81B5
:10170000282F30E08A81882F90E0B90102C0660F4F
:10171000771F8A95E2F7CB01842B8C930F900F9063
:101720000F900F900F90CF91DF910895DF93CF939B
:1017300000D000D0CDB7DEB789836A838981282F96
:1017400030E03C832B838B819C8181309105D1F0EB
:101750002B813C81223031052CF48B819C810097B8
:1017600061F01EC02B813C812230310581F08B81DC
:101770009C818330910581F013C0EBE3F0E08A8116
:1017800080830EC0E8E3F0E08A81808309C0E5E34E
:10179000F0E08A81808304C0E2E3F0E08A81808304
:1017A0000F900F900F900F90CF91DF910895DF93DE
:1017B000CF9300D000D00F92CDB7DEB78A836B8372
:1017C0008A81282F30E03D832C834C815D8141301C
:1017D000510541F18C819D818230910534F42C8139
:1017E0003D812115310561F052C04C815D8142304F
:1017F000510551F18C819D8183309105B9F147C02C
:10180000E9E3F0E08081282F30E08B81882F90E0A1
:10181000A90102C0559547958A95E2F7CA018170E2
:10182000898335C0E6E3F0E08081282F30E08B81AA
:10183000882F90E0A90102C0559547958A95E2F757
:10184000CA018170898323C0E3E3F0E08081282FFF
:1018500030E08B81882F90E0A90102C05595479513
:101860008A95E2F7CA018170898311C0E0E3F0E054
:101870008081282F30E08B81882F90E0A90102C061
:10188000559547958A95E2F7CA01817089838981C8
:101890000F900F900F900F900F90CF91DF910895C0
:1018A000DF93CF9300D000D0CDB7DEB78A838A8193
:1018B000282F30E03C832B838B819C8181309105E4
:1018C000D1F02B813C81223031052CF48B819C811D
:1018D000009761F01EC02B813C812230310581F0E0
:1018E0008B819C818330910581F013C0E9E3F0E0A6
:1018F000808189830EC0E6E3F0E08081898309C09E
:10190000E3E3F0E08081898304C0E0E3F0E08081DC
:10191000898389810F900F900F900F90CF91DF9165
:101920000895DF93CF9300D000D0CDB7DEB7898381
:101930006A838981282F30E03C832B838B819C81B3
:101940008130910549F12B813C81223031052CF405
:101950008B819C81009761F05AC02B813C812230A1
:10196000310571F18B819C8183309105E9F14FC084
:10197000ABE3B0E0EBE3F0E08081482F8A81282FD1
:1019800030E081E090E0022E02C0880F991F0A9497
:10199000E2F784278C933BC0A8E3B0E0E8E3F0E0F3
:1019A0008081482F8A81282F30E081E090E0022E4C
:1019B00002C0880F991F0A94E2F784278C9327C0EE
:1019C000A5E3B0E0E5E3F0E08081482F8A81282F8D
:1019D00030E081E090E0022E02C0880F991F0A9447
:1019E000E2F784278C9313C0A2E3B0E0E2E3F0E0D7
:1019F0008081482F8A81282F30E081E090E0022EFC
:101A000002C0880F991F0A94E2F784278C930F90E5
:101A10000F900F900F90CF91DF910895DF93CF93A8
:101A200000D000D0CDB7DEB789836A838981282FA3
:101A300030E03C832B838B819C8181309105E9F0E0
:101A40002B813C81223031052CF48B819C810097C5
:101A500061F02AC02B813C8122303105B1F08B81AD
:101A60009C8183309105C9F01FC0ABE3B0E0EBE38C
:101A7000F0E0808180958C9317C0A8E3B0E0E8E3A4
:101A8000F0E0808180958C930FC0A5E3B0E0E5E3A2
:101A9000F0E0808180958C9307C0A2E3B0E0E2E3A0
:101AA000F0E0808180958C930F900F900F900F90B5
:101AB000CF91DF910895DF93CF930F92CDB7DEB72B
:101AC0000E94DC0780E589838EEA68E049810E94F4
:101AD000771083E089838EEA69E049810E9477105C
:101AE0008FE289838EEA6AE049810E94771081E261
:101AF00089838EEA61E149810E9477108FE18983B1
:101B00008EEA6CE049810E9477108FE189838EEA2A
:101B10006DE049810E9477108EEA64E040E00E9407
:101B200077108EEA65E040E00E9477108EEA66E06A
:101B300040E00E9477100F90CF91DF910895DF93DE
:101B4000CF93CDB7DEB764970FB6F894DEBF0FBE64
:101B5000CDBF8EEA64E00E9445108E878EEA66E073
:101B60000E9445108D878E85282F30E08D85882F27
:101B700090E0A901481B590BCA01AA2797FDA0951F
:101B8000BA2F89879A87AB87BC8789859A85AB8569
:101B9000BC850097A105B10559F489859A85AB8567
:101BA000BC858096A11DB11D89879A87AB87BC87AC
:101BB00080916D0190916E01A0916F01B0917001C3
:101BC00029853A854B855C85820F931FA41FB51F1D
:101BD00080936D0190936E01A0936F01B09370019B
:101BE0001D821E821F82188619821A821B821C8205
:101BF000109271011092720110927301109274018F
:101C0000D1C09E01215F3F4F8EEA67E046E00E940F
:101C1000C90F8F85882F90E0A0E0B0E0DC01992704
:101C2000882789839A83AB83BC838889882F90E037
:101C3000A0E0B0E02227382F492F5A2F89819A81BE
:101C4000AB81BC81822B932BA42BB52B89839A83E8
:101C5000AB83BC838989282F30E040E050E0898144
:101C60009A81AB81BC81822B932BA42BB52B8983CA
:101C70009A83AB83BC8389819A81AB81BC81A37039
:101C8000B07089839A83AB83BC838A89882F90E064
:101C9000A0E0B0E0DC01992788278D839E83AF8385
:101CA000B8878B89882F90E0A0E0B0E02227382FFA
:101CB000492F5A2F8D819E81AF81B885822B932B1E
:101CC000A42BB52B8D839E83AF83B8878C89282F57
:101CD00030E040E050E08D819E81AF81B885822B5D
:101CE000932BA42BB52B8D839E83AF83B8878D81D7
:101CF0009E81AF81B885A370B0708D839E83AF83C2
:101D0000B8878091710190917201A0917301B09197
:101D10007401880F991F880F991F880F991FFC0164
:101D2000E25EF84F89819A81AB81BC818083918387
:101D3000A283B3838091710190917201A09173018C
:101D4000B0917401880F991F0196880F991F880F11
:101D5000991FFC01E25EF84F8D819E81AF81B885AD
:101D600080839183A283B38389859A85AB85BC8563
:101D70000197A109B10989879A87AB87BC878091B0
:101D8000710190917201A0917301B091740101965B
:101D9000A11DB11D8093710190937201A0937301F5
:101DA000B093740189859A85AB85BC850097A105A0
:101DB000B10571F08091710190917201A091730150
:101DC000B0917401843B9105A105B10508F419CFC8
:101DD0008EEA66E040E00E94771064960FB6F894B1
:101DE000DEBF0FBECDBFCF91DF910895DF93CF93BC
:101DF000CDB7DEB70E949F0D0E946A11CF91DF918F
:101E00000895EF92FF920F931F93DF93CF93CDB777
:101E1000DEB76B970FB6F894DEBF0FBECDBF9E87BF
:101E20008D87109275010E94F60E92C08091750107
:101E3000882F90E0880F991F880F991F880F991F8E
:101E4000FC01E25EF84F80819181A281B381898398
:101E50009A83AB83BC8369817A818B819C810E9448
:101E6000FD037B018C018091690190916A01A09131
:101E70006B01B0916C01BC01CD010E94FD039B017F
:101E8000AC01C801B7010F2EF3E3EF2EF3E3FF2EF1
:101E9000F3E70F2FFFE31F2FF02D0E94C7102F87AE
:101EA000388B498B5A8B6B8B7C8B8D8B9E8BCE01A9
:101EB0000596988F8F8BFE013F96FA8FE98FF8E099
:101EC000FB8FE98DFA8D0080898D9A8D01969A8F0E
:101ED000898FEF89F88D00828F89988D0196988F70
:101EE0008F8B9B8D91509B8FEB8DEE2351F78D81C6
:101EF0009E81AF81B885BC01CD010E944900DC0103
:101F0000CB018093690190936A01A0936B01B09318
:101F10006C0180917501082F10E089859A85AB8549
:101F2000BC85BC01CD010E9449009B01AC01C801E8
:101F3000880F991F880F991FFC01E254F34F2083EB
:101F4000318342835383809175018F5F8093750144
:101F500080917501282F30E040E050E080917101C0
:101F600090917201A0917301B0917401821793074F
:101F7000A407B50708F05ACF6B960FB6F894DEBFEA
:101F80000FBECDBFCF91DF911F910F91FF90EF90CA
:101F900008950F931F93DF93CF93CDB7DEB72A97A2
:101FA0000FB6F894DEBF0FBECDBF8E836F83488718
:101FB0003A8729870E94EF0782E062E040E00E94B2
:101FC000DB0A8E81869560E00E9421080E947D08D0
:101FD0008D838D818831E9F78F810E940A080E94E4
:101FE0007D088D838D818832E9F70E94EF078E810D
:101FF000869561E00E94210819821A821B821C8248
:1020000016C029813A8189859A858C01020F131F98
:102010000E944108F801808389819A81AB81BC814B
:102020000196A11DB11D89839A83AB83BC838885EA
:10203000882F90E001979C01442737FD4095542F4D
:1020400089819A81AB81BC8182179307A407B50768
:10205000C0F28885882F90E09C012150304089850E
:102060009A858C01020F131F0E945408F801808387
:102070000E94FF072A960FB6F894DEBF0FBECDBFB1
:10208000CF91DF911F910F910895DF93CF9300D0EF
:1020900000D0CDB7DEB78B836C830E94EF078B81B6
:1020A000869560E00E9421080E947D088A838A81CB
:1020B0008831E9F78C810E940A080E947D088A8392
:1020C0008A818832E9F70E94EF078B81869561E06B
:1020D0000E9421080E94540889830E94FF07898179
:1020E0000F900F900F900F90CF91DF910895DF9395
:1020F000CF9300D000D0CDB7DEB78A836B834C83FB
:102100000E94EF078A81869560E00E9421080E9464
:102110007D08898389818831E9F78B810E940A08CB
:102120000E947D08898389818832E9F78C810E9429
:102130000A080E947D08898389818832E9F70E9414
:10214000FF070F900F900F900F90CF91DF910895A0
:10215000DF93CF9300D000D0CDB7DEB79A838983C9
:102160007C836B838EEA6EEF0E944510E981FA81D1
:1021700080838EEA6FEF0E944510EB81FC818083A3
:102180000F900F900F900F90CF91DF910895AF9225
:10219000BF92CF92DF92EF92FF920F931F93DF9344
:1021A000CF93CDB7DEB7A9970FB6F894DEBF0FBEB9
:1021B000CDBF698B7A8B8B8B9C8B2D8B3E8B4F8B02
:1021C000588FE98EFA8E0B8F1C8F698D7A8D8B8DCF
:1021D0009C8D2D893E894F89588D0E941F02DC01FC
:1021E000CB01BC01CD0129893A894B895C890E94C8
:1021F000F201DC01CB0189879A87AB87BC8789858F
:102200009A85AB85BC85BC01CD012D893E894F895E
:10221000588D0E94C101DC01CB018D879E87AF875D
:10222000B88BCE0101969E8F8D8FFE013996F8A353
:10223000EF8FF8E0F9A3EF8DF8A100808F8D98A1C2
:10224000019698A38F8FED8DFE8D00828D8D9E8DD2
:1022500001969E8F8D8F99A1915099A3E9A1EE23AC
:1022600051F770E0798180E08A8190E09B8120E0E5
:102270002C8130E03D8140E04E8150E05F8160E0A4
:1022800068857AA38BA39CA32DA33EA34FA358A735
:1022900069A7AAA0BBA0CCA0DDA0EEA0FFA008A5C6
:1022A00019A52A2D3B2D4C2D5D2D6E2D7F2D802FB8
:1022B000912FA9960FB6F894DEBF0FBECDBFCF9178
:1022C000DF911F910F91FF90EF90DF90CF90BF9023
:1022D000AF900895DF93CF930F92CDB7DEB71982F9
:1022E0002CC08981882F90E0880F991F880F991F33
:1022F000880F991FFC01E25EF84F80819181A281D5
:10230000B381BC01CD010E94F1128981882F90E038
:10231000880F991F0196880F991F880F991FFC013C
:10232000E25EF84F80819181A281B381BC01CD0131
:102330000E94F11289818F5F89838981282F30E083
:1023400040E050E08091710190917201A091730181
:10235000B0917401281739074A075B0710F285E42A
:102360000E94CA130F90CF91DF910895DF93CF930E
:10237000CDB7DEB76C970FB6F894DEBF0FBECDBFFA
:1023800082E062E041E00E94C30980E090E0A8E4BE
:10239000B3E4898F9A8FAB8FBC8F698D7A8D8B8DCB
:1023A0009C8D20E030E04AEF54E40E941F02DC01E3
:1023B000CB018D8B9E8BAF8BB88F6D897E898F897A
:1023C000988D20E030E040E85FE30E9479038823A5
:1023D0002CF481E090E09C8B8B8B3FC06D897E89D3
:1023E0008F89988D20E03FEF4FE757E40E94190353
:1023F00018164CF5698D7A8D8B8D9C8D20E030E020
:1024000040E251E40E941F02DC01CB01BC01CD017E
:102410000E944900DC01CB019C8B8B8B0FC088ECA8
:1024200090E09A8B898B89899A890197F1F79A8B29
:10243000898B8B899C8901979C8B8B8B8B899C8941
:10244000009769F714C06D897E898F89988D0E94E5
:102450004900DC01CB019C8B8B8B8B899C89988BF1
:102460008F878F8598890197F1F7988B8F8782E006
:1024700062E041E00E94DB0A80E090E0A8E4B3E47F
:102480008B879C87AD87BE876B857C858D859E8578
:1024900020E030E04AEF54E40E941F02DC01CB014F
:1024A0008F839887A987BA876F81788589859A8570
:1024B00020E030E040E85FE30E94790388232CF4B9
:1024C00081E090E09E838D833FC06F817885898510
:1024D0009A8520E03FEF4FE757E40E941903181652
:1024E0004CF56B857C858D859E8520E030E040E253
:1024F00051E40E941F02DC01CB01BC01CD010E940E
:102500004900DC01CB019E838D830FC088EC90E0F5
:102510009C838B838B819C810197F1F79C838B83B8
:102520008D819E8101979E838D838D819E810097F1
:1025300069F714C06F81788589859A850E94490062
:10254000DC01CB019E838D838D819E819A8389835B
:1025500089819A810197F1F79A83898382E062E009
:1025600040E00E94DB0A6C960FB6F894DEBF0FBE07
:10257000CDBFCF91DF910895DF93CF9300D000D0EE
:10258000CDB7DEB79C838B831A82198211C0298153
:102590003A818B819C81FC01E20FF31F8081882F9F
:1025A00090E00E94AF0689819A8101969A8389837F
:1025B00029813A818B819C81FC01E20FF31F80818C
:1025C000882329F78BE290E00E94AF068DE290E02D
:1025D0000E94AF060F900F900F900F90CF91DF9158
:1025E0000895DF93CF9300D000D0CDB7DEB76983D5
:1025F0007A838B839C8389810E941F1389819A81AE
:10260000AB81BC818070A070B070892F9A2FAB2FE6
:10261000BB270E941F1389819A81AB81BC81807086
:102620009070A370B070CD01AA27BB270E941F1322
:102630000F900F900F900F90CF91DF910895DF933F
:10264000CF93CDB7DEB727970FB6F894DEBF0FBE96
:10265000CDBF8B838B818F708A838B8182958F70A6
:1026600089838A81282F30E03F832E838E819F814A
:102670008C30910531F12E813F812D3031055CF494
:102680008E819F818A309105B1F02E813F812B3060
:102690003105A1F022C08E819F818E309105B9F065
:1026A0002E813F812E3031057CF08E819F818F30CD
:1026B000910581F012C081E48A8312C082E48A838A
:1026C0000FC083E48A830CC084E48A8309C085E454
:1026D0008A8306C086E48A8303C08A81805D8A83F8
:1026E0008981282F30E03D832C838C819D818C3023
:1026F000910531F12C813D812D3031055CF48C81C7
:102700009D818A309105B1F02C813D812B303105BE
:10271000A1F022C08C819D818E309105B9F02C8171
:102720003D812E3031057CF08C819D818F3091056B
:1027300081F012C081E4898312C082E489830FC0D2
:1027400083E489830CC084E4898309C085E4898398
:1027500006C086E4898303C08981805D898389817D
:10276000882F90E00E94AF068A81882F90E00E9417
:10277000AF068BE290E00E94AF068DE290E00E94EF
:10278000AF0627960FB6F894DEBF0FBECDBFCF9130
:10279000DF910895DF93CF930F92CDB7DEB7898392
:1027A0008981882F90E00E94AF068BE290E00E9422
:1027B000AF068DE290E00E94AF060F90CF91DF91BF
:1027C0000895DF93CF93CDB7DEB782E062E041E0BA
:1027D0000E94C30982E062E041E00E94DB0ACF91DF
:1027E000DF910895DF93CF93CDB7DEB785E40E94E4
:1027F000AF068BE20E94AF068DE20E94AF06CF913A
:10280000DF910895DF93CF93CDB7DEB72F970FB643
:10281000F894DEBF0FBECDBF0E946B060E945B0D19
:102820001F860E94F60E0E94F60E80E090E0AAE756
:10283000B5E48B879C87AD87BE876B857C858D854E
:102840009E8520E030E04AEF54E40E941F02DC0144
:10285000CB018F839887A987BA876F81788589850F
:102860009A8520E030E040E85FE30E947903882306
:102870002CF481E090E09E838D833FC06F8178854A
:1028800089859A8520E03FEF4FE757E40E941903BE
:1028900018164CF56B857C858D859E8520E030E093
:1028A00040E251E40E941F02DC01CB01BC01CD01DA
:1028B0000E944900DC01CB019E838D830FC088EC10
:1028C00090E09C838B838B819C810197F1F79C83A3
:1028D0008B838D819E8101979E838D838D819E81C7
:1028E000009769F7A0CF6F81788589859A850E94C6
:1028F0004900DC01CB019E838D838D819E819A836B
:10290000898389819A810197F1F79A8389838BCF93
:102910002F923F924F925F926F927F928F929F92EF
:10292000AF92BF92CF92DF92EF92FF920F931F93DD
:10293000CF93DF93CDB7DEB7CA1BDB0B0FB6F8948E
:10294000DEBF0FBECDBF09942A88398848885F84CE
:102950006E847D848C849B84AA84B984C884DF803F
:10296000EE80FD800C811B81AA81B981CE0FD11D23
:102970000FB6F894DEBF0FBECDBFED010895F894F9
:02298000FFCF87
:102982000000000000000000000102020303030334
:1029920004040404040404040505050505050505ED
:1029A20005050505050505050606060606060606CD
:1029B20006060606060606060606060606060606B5
:1029C200060606060606060607070707070707079D
:1029D2000707070707070707070707070707070785
:1029E2000707070707070707070707070707070775
:1029F2000707070707070707070707070707070765
:102A0200070707070707070708080808080808084C
:102A12000808080808080808080808080808080834
:102A22000808080808080808080808080808080824
:102A32000808080808080808080808080808080814
:102A42000808080808080808080808080808080804
:102A520008080808080808080808080808080808F4
:102A620008080808080808080808080808080808E4
:102A720008080808080808080808080808080808D4
:082A820008080808080808080C
:00000001FF
