:100000000C942A000C94360B0C945D0B0C94840B0E
:100010000C9456090C94A5090C94FB090C94470008
:100020000C9447000C94220A0C94B1080C9400091B
:100030000C9447000C949E070C94C6070C94D507AB
:100040000C9447000C9447000C9447000C94470014
:100050000C94470011241FBECFE5D8E0DEBFCDBF12
:1000600012E0A8E6B1E001C01D92A535B107E1F7A5
:1000700011E0A0E6B0E0EEE3F9E202C005900D92D7
:10008000A836B107D9F70E9436140C949D140C942D
:100090000000EF92FF920F931F937B018C0120E0F1
:1000A00030E040E05FE40E94F50388238CF0C80153
:1000B000B70120E030E040E05FE40E94C1010E940F
:1000C000B3049B01AC01205030404040504806C072
:1000D000C801B7010E94B3049B01AC01B901CA0178
:1000E0001F910F91FF90EF900895A0E0B0E0EBE733
:1000F000F0E00C946614DC012B01FA019C91923023
:1001000008F439C1EB018881823008F433C194309E
:1001100069F4843009F02FC111969C91119789815F
:10012000981709F428C1A0E6B0E025C1843009F48D
:1001300021C18230A9F4923009F01DC19A01AD01AC
:1001400088E0EA010990AE01E90109929E0181501F
:10015000C1F7E201898111969C918923818308C1AD
:10016000923009F407C112962D903C901397EB0141
:100170008A819B811496AD90BD90CD90DC901797AD
:10018000EC80FD800E811F819101281B390BB90184
:1001900037FF04C066277727621B730B6032710537
:1001A0000CF061C0121613066CF537014801062EDB
:1001B00004C096948794779467940A94D2F721E0C8
:1001C00030E040E050E004C0220F331F441F551FB1
:1001D0006A95D2F721503040404050402E213F21B7
:1001E00040235123211531054105510521F021E01E
:1001F00030E040E050E079018A01E628F72808293C
:1002000019293CC0232BD1F1260E371E350146019A
:10021000062E04C096948794779467940A94D2F734
:1002200021E030E040E050E004C0220F331F441FC3
:10023000551F6A95D2F721503040404050402A2146
:100240003B214C215D21211531054105510521F04E
:1002500021E030E040E050E059016A01A628B728CB
:10026000C828D9280BC0821593052CF01C01AA249C
:10027000BB24650103C0EE24FF24870111969C91E5
:10028000D20111968C91981709F445C0992339F041
:10029000A80197012A193B094C095D0906C0A6016E
:1002A00095012E193F09400B510B57FD08C01182D3
:1002B0003382228224833583468357831DC081E0A5
:1002C00081833382228288279927DC01821B930B4A
:1002D000A40BB50B84839583A683B7830DC0220F2F
:1002E000331F441F551F24833583468357838281E0
:1002F000938101979383828324813581468157813D
:10030000DA01C9010197A109B1098F5F9F4FAF4F72
:10031000BF4328F30BC0918333822282EA0CFB1C7B
:100320000C1D1D1DE482F5820683178383E0808304
:10033000248135814681578157FF1AC0C901AA27F8
:1003400097FDA095BA2F81709070A070B0705695EF
:10035000479537952795822B932BA42BB52B848318
:100360009583A683B7838281938101969383828349
:10037000DF0101C0D201CD01CDB7DEB7E2E10C94BF
:100380008214A0E2B0E0E7ECF1E00C94721469830F
:100390007A838B839C832D833E834F835887E9E048
:1003A000EE2EF12CEC0EFD1ECE010196B7010E943F
:1003B000A4068E010F5E1F4FCE010596B8010E9464
:1003C000A4068A8991E089278A8BC701B801AE010A
:1003D000475E5F4F0E9475000E94CF05A096E6E041
:1003E0000C948E14A0E2B0E0E8EFF1E00C947214EB
:1003F00069837A838B839C832D833E834F835887C5
:10040000F9E0EF2EF12CEC0EFD1ECE010196B701A6
:100410000E94A4068E010F5E1F4FCE010596B80103
:100420000E94A406C701B801AE01475E5F4F0E945B
:1004300075000E94CF05A096E6E00C948E14A0E211
:10044000B0E0E5E2F2E00C94661469837A838B8372
:100450009C832D833E834F835887CE010196BE0136
:10046000675F7F4F0E94A406CE010596BE016F5EB6
:100470007F4F0E94A4069985923088F08989823046
:10048000C8F0943019F4823051F404C0843029F457
:10049000923081F480E690E0C6C0923049F420E0CA
:1004A0009A858A89981321E02A87CE010996BBC0D4
:1004B000823049F420E09A858A89981321E02A8BBA
:1004C000CE014196B0C02D843E844F8458886D88FB
:1004D0007E888F88988CEE24FF248701AA24BB2471
:1004E000650140E050E060E070E0E0E0F0E0C10174
:1004F00081709070892BE9F0E60CF71C081D191D1E
:100500009A01AB012A0D3B1D4C1D5D1D80E090E062
:10051000A0E0B0E0E614F7040805190520F481E036
:1005200090E0A0E0B0E0BA01A901480F591F6A1F8E
:100530007B1FAA0CBB1CCC1CDD1C97FE08C081E0F5
:1005400090E0A0E0B0E0A82AB92ACA2ADB2A3196B6
:10055000E032F10549F0660C771C881C991C569412
:10056000479437942794C3CFFA85EA892B893C892D
:100570008B859C85280F391F2E5F3F4F17C0CA01FE
:1005800081709070892B61F016950795F794E79428
:1005900080E090E0A0E0B0E8E82AF92A0A2B1B2BC3
:1005A00076956795579547952F5F3F4F77FDE7CF36
:1005B0000CC0440F551F661F771F17FD4160EE0CDE
:1005C000FF1C001F111F21503040403090E05907A0
:1005D00090E0690790E4790760F32B8F3C8FDB0193
:1005E000CA018F779070A070B07080349105A1051A
:1005F000B10561F447FD0AC0E114F10401051105DC
:1006000029F0405C5F4F6F4F7F4F40781A8EFE1786
:1006100011F081E08A8F4D8F5E8F6F8F78A383E01A
:10062000898FCE0149960E94CF05A096E2E10C94F5
:100630008214A8E1B0E0EFE1F3E00C946E1469835A
:100640007A838B839C832D833E834F835887B9E0C5
:10065000EB2EF12CEC0EFD1ECE010196B7010E948F
:10066000A4068E010F5E1F4FCE010596B8010E94B1
:10067000A4062985223008F47EC03989323010F46E
:10068000B8017CC08A859A8989278A87243011F02D
:10069000223031F4231709F06EC060E670E06EC0BE
:1006A000343039F41D861E861F86188A1C861B86E8
:1006B00004C0323021F484E08987B7015FC02B8504
:1006C0003C858B899C89281B390B3C872B87ED84C3
:1006D000FE840F851889AD88BE88CF88D88CEA142F
:1006E000FB040C051D0540F4EE0CFF1C001F111F40
:1006F000215030403C872B8720E030E040E050E044
:1007000080E090E0A0E0B0E460E070E0EA14FB0478
:100710000C051D0540F0282B392B4A2B5B2BEA18C2
:10072000FB080C091D09B695A79597958795EE0CC2
:10073000FF1C001F111F6F5F7F4F6F31710531F775
:10074000DA01C9018F779070A070B0708034910584
:10075000A105B10561F427FD0AC0E114F10401050A
:10076000110529F0205C3F4F4F4F5F4F20782D87B8
:100770003E874F87588BBE01675F7F4FCB010E943A
:10078000CF056896EAE00C948A14A8E1B0E0EBEC9F
:10079000F3E00C94721469837A838B839C832D839A
:1007A0003E834F83588789E0E82EF12CEC0EFD1E26
:1007B000CE010196B7010E94A4068E010F5E1F4F65
:1007C000CE010596B8010E94A4068985823040F0CA
:1007D0008989823028F0C701B8010E941C0701C036
:1007E0008FEF6896E6E00C948E14A8E1B0E0EBEF92
:1007F000F3E00C94721469837A838B839C832D833A
:100800003E834F83588789E0E82EF12CEC0EFD1EC5
:10081000CE010196B7010E94A4068E010F5E1F4F04
:10082000CE010596B8010E94A4068985823040F069
:100830008989823028F0C701B8010E941C0701C0D5
:100840008FEF6896E6E00C948E14A8E1B0E0EBE23E
:10085000F4E00C94721469837A838B839C832D83D8
:100860003E834F83588789E0E82EF12CEC0EFD1E65
:10087000CE010196B7010E94A4068E010F5E1F4FA4
:10088000CE010596B8010E94A4068985823040F009
:100890008989823028F0C701B8010E941C0701C075
:1008A00081E06896E6E00C948E14A8E0B0E0EBE5F9
:1008B000F4E00C946F149B01AC0183E08983DA01AE
:1008C000C9018827B7FD83959927AA27BB27B82E8A
:1008D000211531054105510519F482E089833AC09B
:1008E0008823A9F0203080E0380780E0480780E8BE
:1008F000580729F460E070E080E09FEC30C0EE24FF
:10090000FF248701E21AF30A040B150B02C07901D8
:100910008A018EE1C82ED12CDC82CB82ED82FE8250
:100920000F831887C801B7010E9480050197181628
:10093000190684F4082E04C0EE0CFF1C001F111FC2
:100940000A94D2F7ED82FE820F831887C81AD90A5B
:10095000DC82CB82BA82CE0101960E94CF05289616
:10096000E9E00C948B14ACE0B0E0E9EBF4E00C941B
:10097000761469837A838B839C83CE010196BE01B2
:100980006B5F7F4F0E94A4068D81823061F18230BF
:1009900050F1843021F48E81882351F12EC02F81B3
:1009A000388537FD20C06E812F3131051CF066235C
:1009B000F9F023C08EE190E0821B930B29853A85E4
:1009C0004B855C8504C056954795379527958A9544
:1009D000D2F76623B1F050954095309521953F4F61
:1009E0004F4F5F4F0EC020E030E040E050E009C0C4
:1009F0002FEF3FEF4FEF5FE704C020E030E040E033
:100A000050E8B901CA012C96E2E00C949214A8E0D7
:100A1000B0E0EDE0F5E00C946E147B018C01611503
:100A200071058105910519F482E0898360C083E036
:100A300089838EE1C82ED12CDC82CB82ED82FE82AE
:100A40000F831887C801B7010E948005FC01319708
:100A5000F7FF3BC0222733272E1B3F0B57016801AE
:100A6000022E04C0D694C794B794A7940A94D2F7E0
:100A700040E050E060E070E081E090E0A0E0B0E0B5
:100A800004C0880F991FAA1FBB1F2A95D2F7019790
:100A9000A109B1098E219F21A023B1230097A105AF
:100AA000B10521F041E050E060E070E04A295B29A7
:100AB0006C297D294D835E836F8378878EE190E07A
:100AC0008E1B9F0B9C838B8312C0309781F00E2E60
:100AD00004C0EE0CFF1C001F111F0A94D2F7ED8218
:100AE000FE820F831887CE1ADF0ADC82CB821A823D
:100AF000CE0101960E94CF052896EAE00C948A1454
:100B0000EF92FF920F931F937B018C0180E0E81618
:100B100080E0F80681E0080780E0180788F48FEF8E
:100B2000E816F1040105110531F028F088E090E0A5
:100B3000A0E0B0E017C080E090E0A0E0B0E012C01C
:100B400080E0E81680E0F80680E0080781E01807FA
:100B500028F088E190E0A0E0B0E004C080E190E0FF
:100B6000A0E0B0E020E230E040E050E0281B390B8C
:100B70004A0B5B0B04C016950795F794E7948A958A
:100B8000D2F7F701E859FF4F8081281B310941094D
:100B90005109C9011F910F91FF90EF900895DF92C5
:100BA000EF92FF920F931F93FC01E480F580068182
:100BB0001781D1808081823048F480E090E0A0E10C
:100BC000B0E0E82AF92A0A2B1B2BA5C0843009F4CF
:100BD0009FC0823021F4EE24FF24870105C0E11478
:100BE000F1040105110519F4E0E0F0E096C062811E
:100BF00073819FEF623879070CF05BC022E83FEF0A
:100C0000261B370B2A3131052CF020E030E040E084
:100C100050E02AC0B801A701022E04C0769567955E
:100C2000579547950A94D2F781E090E0A0E0B0E0B4
:100C300004C0880F991FAA1FBB1F2A95D2F70197DE
:100C4000A109B1098E219F21A023B1230097A105FD
:100C5000B10521F081E090E0A0E0B0E09A01AB01A5
:100C6000282B392B4A2B5B2BDA01C9018F77907027
:100C7000A070B07080349105A105B10539F427FF4B
:100C800009C0205C3F4F4F4F5F4F04C0215C3F4F76
:100C90004F4F5F4FE0E0F0E02030A0E03A07A0E0E7
:100CA0004A07A0E45A0710F0E1E0F0E079018A0178
:100CB00027C06038710564F5FB01E158FF4FD8018A
:100CC000C7018F779070A070B07080349105A10536
:100CD000B10539F4E7FE0DC080E490E0A0E0B0E09B
:100CE00004C08FE390E0A0E0B0E0E80EF91E0A1F18
:100CF0001B1F17FF05C016950795F794E7943196CB
:100D000087E016950795F794E7948A95D1F705C083
:100D1000EE24FF248701EFEFF0E06E2F6795662742
:100D20006795902F9F77D794DD24D7948E2F869543
:100D3000492F462B582F5D29B701CA011F910F91EA
:100D4000FF90EF90DF900895FC01DB01408151811D
:100D50002281622F6F7770E0221F2227221F93814A
:100D6000892F880F822B282F30E0991F9927991FF0
:100D700011969C93119721153105A9F5411551053F
:100D80006105710511F482E037C082E89FEF139688
:100D90009C938E9312979A01AB0167E0220F331F49
:100DA000441F551F6A95D1F783E08C930DC0220F25
:100DB000331F441F551F12968D919C9113970197D5
:100DC00013969C938E931297203080E0380780E032
:100DD000480780E4580758F314962D933D934D939C
:100DE0005C93179708952F3F310579F4411551050C
:100DF0006105710519F484E08C93089564FF03C0C4
:100E000081E08C9312C01C9210C02F573040139673
:100E10003C932E93129783E08C9387E0440F551FE9
:100E2000661F771F8A95D1F7706414964D935D9372
:100E30006D937C93179708951F93DC01FB019C91A0
:100E4000923008F447C08081823008F443C0943067
:100E500051F411961C91843099F58181682F70E0CE
:100E6000611B71093FC0843021F0923031F482302F
:100E7000B9F18181882389F12DC011961C911197B8
:100E80008230F1F081811817D9F412962D913C919E
:100E90001397828193818217930794F0281739075B
:100EA000BCF014968D919D910D90BC91A02D248144
:100EB000358146815781281739074A075B0718F49F
:100EC000112341F00AC082179307A407B50740F425
:100ED000112319F061E070E005C06FEF7FEF02C0F1
:100EE00060E070E0CB011F9108955D9BFECF8CB94F
:100EF0000895FC0104C05D9BFECF8CB931968081C2
:100F00008823C9F708955F9BFECF8CB10895DC015B
:100F10005F9BFECF8CB18C9390E008C09F5F5F9B7E
:100F2000FECF8CB1FD01E90FF11D8083FD01E90FBA
:100F3000F11D8081882391F7108208951F920F92EE
:100F40000FB60F9211242F933F934F935F936F939C
:100F50007F938F939F93AF93BF93EF93FF938CB146
:100F6000E091AA01F091AB010995FF91EF91BF913A
:100F7000AF919F918F917F916F915F914F913F9131
:100F80002F910F900FBE0F901F9018951F920F92E8
:100F90000FB60F9211248F93809168018CB98F91B5
:100FA0000F900FBE0F901F9018951F920F920FB6C3
:100FB0000F9211240F900FBE0F901F9018950F9352
:100FC0001F938C010E94180B579A1093AB0100934A
:100FD000AA011F910F9108951F93182F0E94180BBB
:100FE000559A109368011F91089583E389B910BC45
:100FF00080B58F74806880BD80B58777806880BD3C
:1010000080B5866880BD529883E060E040E00E9431
:10101000E00B83E061E041E00E94E00B549A539AB8
:10102000089582E080B982B984E086BF089584EA99
:1010300086BF06B607FEFDCF089584E986BF0895F2
:1010400083B984E886BF06B607FEFDCF0895880FF2
:10105000862B83B984E886BF06B607FEFDCF0895C8
:1010600084EC86BF06B607FEFDCF83B1089584E801
:1010700086BF06B607FEFDCF83B1089586B78068A8
:1010800086BF06B607FEFDCF83B1089581B1887F84
:101090000895813089F0813018F08230E9F406C07B
:1010A00083B780788860836083BF089585B5807832
:1010B0008866826085BD08958FB58F738FBD8FB5AB
:1010C0008F7C8FBD8EB5887F82608EBD8FB58C7F03
:1010D0008FBD8EB5877E8EBD0895813049F08130F9
:1010E00018F0823039F402C062BF089564BD0895DB
:1010F0007DBD6CBD0895813049F0813018F082309B
:1011000039F402C06CBF089563BD08957BBD6ABD0C
:1011100008959BBD8ABD089599BD88BD089597BD6A
:1011200086BD089526B537B5C90108959093B701D6
:101130008093B60108959093B9018093B801089502
:1011400089B78F7D89BF0895882319F0813041F4D4
:1011500004C08EB580648EBD08958EB58F7B8EBD24
:1011600008951F920F920FB60F9211242F933F9361
:101170004F935F936F937F938F939F93AF93BF939F
:10118000EF93FF938091750190917601A091770183
:10119000B09178010196A11DB11D809375019093C6
:1011A0007601A0937701B093780120917901309175
:1011B0007A0140917B0150917C0182179307A4072B
:1011C000B50769F4109275011092760110927701BB
:1011D00010927801E091B201F091B3010995FF916D
:1011E000EF91BF91AF919F918F917F916F915F919F
:1011F0004F913F912F910F900FBE0F901F90189518
:101200001F920F920FB60F9211242F933F934F937B
:101210005F936F937F938F939F93AF93BF93EF935E
:10122000FF938091710190917201A0917301B0912F
:1012300074010196A11DB11D8093710190937201FB
:10124000A0937301B09374012091790130917A01D8
:1012500040917B0150917C0182179307A407B50749
:10126000A1F4109271011092720110927301109208
:101270007401609181017091820180E00E946D088B
:10128000E091AC01F091AD010995FF91EF91BF9113
:10129000AF919F918F917F916F915F914F913F910E
:1012A0002F910F900FBE0F901F9018951F920F92C5
:1012B0000FB60F9211242F933F934F935F936F9329
:1012C0007F938F939F93AF93BF93EF93FF938091FF
:1012D0006D0190916E01A0916F01B0917001019626
:1012E000A11DB11D80936D0190936E01A0936F01BC
:1012F000B093700120917D0130917E0140917F017A
:101300005091800182179307A407B50769F41092E2
:101310006D0110926E0110926F0110927001E091B8
:10132000B001F091B1010995FF91EF91BF91AF919B
:101330009F918F917F916F915F914F913F912F91ED
:101340000F900FBE0F901F9018951F920F920FB61F
:101350000F9211242F933F934F935F936F937F933B
:101360008F939F93AF93BF93EF93FF938091690106
:1013700090916A01A0916B01B0916C010196A11D41
:10138000B11D8093690190936A01A0936B01B093A2
:101390006C0120917D0130917E0140917F0150913F
:1013A000800182179307A407B507A1F41092690181
:1013B00010926A0110926B0110926C01609185018C
:1013C0007091860182E00E946D08E091B401F09175
:1013D000B5010995FF91EF91BF91AF919F918F91C9
:1013E0007F916F915F914F913F912F910F900FBE21
:1013F0000F901F9018951F920F920FB60F92112405
:101400002F933F934F935F936F937F938F939F930C
:10141000AF93BF93EF93FF93E091B801F091B901BF
:101420000995FF91EF91BF91AF919F918F917F911E
:101430006F915F914F913F912F910F900FBE0F9041
:101440001F9018951F920F920FB60F9211242F9391
:101450003F934F935F936F937F938F939F93AF933C
:10146000BF93EF93FF93E091B601F091B701099517
:10147000FF91EF91BF91AF919F918F917F916F916C
:101480005F914F913F912F910F900FBE0F901F9042
:1014900018958FB58E7F8FBD8FB58D7F8FBD8EB523
:1014A000877F8EBD8EB58F7E8EBD8EB580648EBDDE
:1014B00089B7806289BF89B7846089BF83E066E0AD
:1014C00040E00E94E00B8EB58E7F8EBD8EB58260AF
:1014D0008EBD8EB58B7F8EBD0895EF92FF920F93D8
:1014E0001F937A018B01882319F0823011F506C011
:1014F00081E063E041E00E94E00B1BC083E067E015
:1015000041E00E94E00BC801B70120E030E048EC68
:1015100052E40E94190320E030E04FE753E40E94B8
:101520001F020E9449009B01AC0182E0B9010E94A8
:101530007B081F910F91FF90EF900895DF92EF923B
:10154000FF920F931F93CF93DF93D82E7A018B01D5
:10155000E9010E94180BDD2029F081E0D81609F07E
:101560005FC056C0C801B70120E030E04AE754E44C
:101570000E9419037B018C0120E030E040E050E044
:101580000E9419030E9449009B01AC016F3F710545
:101590008105910509F088F480E0B9010E947B087B
:1015A00081E090E0A0E0B0E08093790190937A012F
:1015B000A0937B01B0937C0123C080E06AEF70E0D0
:1015C0000E947B08C801B70120E034E244EF5AE4EE
:1015D0000E941F0220E030E040E85CE30E941F020E
:1015E00020E030E04AE753E40E9419030E944900DA
:1015F0006093790170937A0180937B0190937C01D1
:10160000D093B301C093B20189B7826089BF08C08B
:10161000D093B701C093B601D093AF01C093AE0190
:10162000DF91CF911F910F91FF90EF90DF90089580
:101630008FB780688FBF08958FB78F778FBF08955A
:10164000613051F0613018F0623079F40AC0909343
:10165000BD018093BC0108959093BB018093BA01B2
:1016600008959093BF018093BE0108951F920F9239
:101670000FB60F9211242F933F934F935F936F9365
:101680007F938F939F93AF93BF93EF93FF93E091DB
:10169000BC01F091BD010995FF91EF91BF91AF9110
:1016A0009F918F917F916F915F914F913F912F917A
:1016B0000F900FBE0F901F9018951F920F920FB6AC
:1016C0000F9211242F933F934F935F936F937F93C8
:1016D0008F939F93AF93BF93EF93FF93E091BA01E2
:1016E000F091BB010995FF91EF91BF91AF919F914F
:1016F0008F917F916F915F914F913F912F910F90BB
:101700000FBE0F901F9018951F920F920FB60F9259
:1017100011242F933F934F935F936F937F938F93F6
:101720009F93AF93BF93EF93FF93E091BE01F0912E
:10173000BF010995FF91EF91BF91AF919F918F915B
:101740007F916F915F914F913F912F910F900FBEBD
:101750000F901F90189581E062E040E00E94E00B3E
:1017600081E062E041E00E94630C8BB780628BBF36
:1017700084B78F7B84BF089583E063E040E00E94DC
:10178000E00B83E063E041E00E94630C8BB780686C
:101790008BBF85B7837F886085BF089583E062E053
:1017A00040E00E94E00B83E062E041E00E94630CB5
:1017B0008BB780648BBF85B78C7F826085BF0895AF
:1017C0008130E9F0813030F0823071F1833009F0FE
:1017D00054C03FC08AB321E030E0062E02C0220F81
:1017E000331F0A94E2F720952823842F90E002C04B
:1017F000880F991F6A95E2F7282B2ABB089587B3B3
:1018000021E030E0062E02C0220F331F0A94E2F7D7
:1018100020952823842F90E002C0880F991F6A9595
:10182000E2F7282B27BB089584B321E030E0062E91
:1018300002C0220F331F0A94E2F720952823842F39
:1018400090E002C0880F991F6A95E2F7282B24BB0D
:10185000089581B321E030E0062E02C0220F331F2D
:101860000A94E2F720952823842F90E002C0880F85
:10187000991F6A95E2F7282B21BB0895813071F0FA
:10188000813028F0823089F08330E1F415C066237E
:1018900011F41ABA08958FEF8ABB0895662311F4E4
:1018A00017BA08958FEF87BB0895662311F414BA11
:1018B00008958FEF84BB0895662311F411BA08953B
:1018C0008FEF81BB08958130E9F0813030F08230B4
:1018D00071F1833009F054C03FC08BB321E030E098
:1018E000062E02C0220F331F0A94E2F72095282308
:1018F000842F90E002C0880F991F6A95E2F7282B89
:101900002BBB089588B321E030E0062E02C0220FE1
:10191000331F0A94E2F720952823842F90E002C019
:10192000880F991F6A95E2F7282B28BB089585B385
:1019300021E030E0062E02C0220F331F0A94E2F7A6
:1019400020952823842F90E002C0880F991F6A9564
:10195000E2F7282B25BB089582B321E030E0062E64
:1019600002C0220F331F0A94E2F720952823842F08
:1019700090E002C0880F991F6A95E2F7282B22BBDE
:101980000895813049F0813028F0823039F0833079
:1019900041F406C06BBB089568BB089565BB08950C
:1019A00062BB0895813049F0813028F0823039F0EF
:1019B0008330B1F40DC089B303C086B301C083B3D3
:1019C00090E002C0959587956A95E2F78170089539
:1019D00080B390E002C0959587956A95E2F7817093
:1019E0000895813049F0813028F0823039F0833019
:1019F00041F406C089B3089586B3089583B308956A
:101A000080B30895813091F0813028F08230C9F0A0
:101A1000833061F521C02BB381E090E002C0880FD4
:101A2000991F6A95E2F728272BBB089528B381E018
:101A300090E002C0880F991F6A95E2F7282728BB1B
:101A4000089525B381E090E002C0880F991F6A9540
:101A5000E2F7282725BB089522B381E090E002C079
:101A6000880F991F6A95E2F7282722BB08958130D5
:101A700059F0813028F0823059F0833081F40CC065
:101A80008BB380958BBB089588B3809588BB0895F0
:101A900085B3809585BB089582B3809582BB0895F8
:101AA000EF92FF920F931F937B018C0120E030E0B7
:101AB0004AEF54E40E94C50318164CF510925402E4
:101AC00080E090E0A0E0B0E08093A6019093A701B1
:101AD000A093A801B093A90110929D0110929E01BC
:101AE00010929F011092A0011092A1011092A201E8
:101AF0001092A3011092A4011092A5011092470226
:101B0000109248021092490210924A0222C180911A
:101B100054028130B9F0813020F0823009F011C1D7
:101B2000F1C0C801B70120E030E048E453E40E946E
:101B3000F50388230CF405C181E0809354021092D0
:101B4000A501FFC0C801B7012091A6013091A701EE
:101B50004091A8015091A9010E94C50318160CF5E7
:101B60008091890190918A01A0918B01B0918C01A3
:101B7000880F991FAA1FBB1F8093A1019093A201F8
:101B8000A093A301B093A401C801B7010E9449002A
:101B900060934702709348028093490290934A02EF
:101BA000D0C02091A1013091A2014091A301509198
:101BB000A40180919D0190919E01A0919F01B091FF
:101BC000A00179018A01E81AF90A0A0B1B0BC80166
:101BD000B70120939D0130939E0140939F01509344
:101BE000A001E114F1040105110529F460E070E0A1
:101BF00080E090E00AC00E9407059B01AC0160E014
:101C000070E68AE697E40E941903E0914202F0E050
:101C1000EE0FFF1FEE0FFF1FE054FE4F6083718336
:101C20008283938380E090E0A0E0B0E08093430261
:101C300090934402A0934502B0934602EE24FF2401
:101C40008701609143027091440280914502909116
:101C50004602F701EE0FFF1FEE0FFF1FE054FE4F8D
:101C600020813181428153810E94F20160934302BD
:101C70007093440280934502909346020894E11CBD
:101C8000F11C011D111D8AE0E816F1040105110582
:101C9000C1F6809142028F5F80934202809142029E
:101CA0006AE00E945A149093420280914B028A305B
:101CB00028F480914B028F5F80934B02E0904302A7
:101CC000F0904402009145021091460260914B024F
:101CD00070E0882777FD8095982F0E9455049B011E
:101CE000AC01C801B7010E9419036093E801709329
:101CF000E9018093EA019093EB0182E08093540222
:101D000081E028C0C801B7012091A6013091A70148
:101D10004091A8015091A9010E94250488232CF428
:101D20008091A5018F5F8093A501C801B70120E0D4
:101D300030E048E453E40E942504882314F4109210
:101D40005402E092A601F092A7010093A80110931B
:101D5000A90180E01F910F91FF90EF9008956F927D
:101D60007F928F929F92AF92BF92CF92DF92EF922B
:101D7000FF920F931F93DF93CF93CDB7DEB72897D2
:101D80000FB6F894DEBF0FBECDBF5B016C01390109
:101D90004A01C801B7010E941F029B01AC01C601A4
:101DA000B5010E94F2017B018C01A40193010E9404
:101DB000C1016D837E838F839887E982FA820B83CA
:101DC0001C8329813A814B815C816D817E818F8169
:101DD000988528960FB6F894DEBF0FBECDBFCF9181
:101DE000DF911F910F91FF90EF90DF90CF90BF9008
:101DF000AF909F908F907F906F9008958F929F9259
:101E0000AF92BF92DF92EF92FF920F931F93CF9307
:101E1000DF934B015C01EA016DE3E62EF12CE40E49
:101E2000F51EDCAC0D2D10E0000F111F000F111F6F
:101E30000C0F1D1FF7016081718182819381F80170
:101E400020813181428153810E94C101F701608369
:101E5000718382839383F80180829182A282B3820C
:101E6000A50194010E94F201F701608371838283CE
:101E700093838D2D8F5F6FE00E945A149CAFFE01FB
:101E8000EF5BFF4F80818F3010F48F5F8083CF5BDB
:101E9000DF4F688170E0882777FD8095982F0E943A
:101EA00055049B01AC019A918A917A916A910E94A2
:101EB0001903A50194010E94C101DF91CF911F91E7
:101EC0000F91FF90EF90DF90BF90AF909F908F9019
:101ED00008958F929F92AF92BF92CF92DF92EF922E
:101EE000FF920F931F934A01FA01E480F580068167
:101EF0001781E082F182028313832BE73FE14BE7F6
:101F00005EE30E941F025B016C01C801B70123E47C
:101F100030E742E05FE30E941F029B01AC01C60173
:101F2000B5010E94F2019B01AC01F4016483758349
:101F300086839783C801B7010E94F201F40160878C
:101F40007187828793871F910F91FF90EF90DF90A9
:101F5000CF90BF90AF909F908F900895809189010E
:101F600090918A01A0918B01B0918C010196A11DE5
:101F7000B11D8093890190938A01A0938B01B09346
:101F80008C01089590E00E9475078BE290E00E941A
:101F900075078DE290E00E94750708951F93982FB2
:101FA0009F7082958F709C3091F09D3028F49A300C
:101FB00061F09B30A1F407C09E3069F09E3048F07C
:101FC0009F3069F40AC012E40CC011E40AC013E4A3
:101FD00008C014E406C015E404C016E402C0192FBA
:101FE000105D8C3091F08D3028F48A3061F08B30A8
:101FF000A1F407C08E3069F08E3048F08F3069F45C
:102000000AC082E40BC081E409C083E407C084E411
:1020100005C085E403C086E401C0805D90E00E94B5
:102020007507812F90E00E9475078BE290E00E9477
:1020300075078DE290E00E9475071F910895EF9259
:10204000FF920F931F937B018C01862F0E94CE0F6E
:102050008F2D0E94CE0F802F0E94CE0FE12EFF24E5
:10206000002711278E2D0E94CE0F1F910F91FF90F8
:10207000EF900895AF92BF92CF92DF92EF92FF92CE
:102080000F931F937B018C0159016A0182E50E9425
:10209000C20F8EE40E94C20FC801B7010E941F1038
:1020A000C601B5010E941F106091890170918A01DB
:1020B00080918B0190918C010E941F101F910F91B4
:1020C000FF90EF90DF90CF90BF90AF900895AF92C8
:1020D000BF92CF92DF92EF92FF920F931F937B01FB
:1020E0008C0159016A0183E50E94C20F8EE40E94AF
:1020F000C20FC801B7010E941F10C601B5010E949E
:102100001F106091890170918A0180918B019091DB
:102110008C010E941F101F910F91FF90EF90DF9094
:10212000CF90BF90AF900895CF93DF93EC0103C0A1
:1021300090E00E94750789918823D1F78BE290E0A7
:102140000E9475078DE290E00E947507DF91CF91A4
:10215000089582E062E041E00E94E00B80ED97E0AC
:1021600028EC30E0F9013197F1F70197D9F782E0D7
:1021700062E041E00E94630C80ED97E028EC30E0E3
:10218000F9013197F1F70197D9F782E062E040E079
:102190000E94630C08950F931F93182F062F0E941F
:1021A00017081695812F60E00E9427080E944608B4
:1021B0008831B9F4802F0E9420080E944608883296
:1021C00079F40E941708812F61E00E9427080E947D
:1021D0003708182F0E941D08812F1F910F91089515
:1021E000FFCFFFCFEF92FF920F931F938C017B01E4
:1021F0008EEA6EEF0E94CB10F80180838EEA6FEFBB
:102200000E94CB10F70180831F910F91FF90EF90F8
:102210000895FF920F931F93182F062FF42E0E94FC
:102220001708812F869560E00E9427080E944608C3
:102230008831B1F4802F0E9420080E94460888321D
:1022400071F48F2D0E9420080E944608883231F4D4
:102250000E941D081F910F91FF900895FFCFFFCF9F
:10226000FFCFEF92FF920F931F93DF93CF93CDB7E2
:10227000DEB72E970FB6F894DEBF0FBECDBF0E941B
:10228000170882E062E040E00E94630C87E560E0AE
:102290000E9427080E944608883109F07DC087E027
:1022A0000E9420080E944608883209F074C00E94EB
:1022B000170887E561E00E9427088E010F5F1F4F16
:1022C00086E0E82EF12CEC0EFD1E0E943008F8018D
:1022D00081938F01EE15FF05C1F70E9437088E83A9
:1022E0000E941D08298130E040E050E0A901332719
:1022F00022278A8190E0A0E0B0E0BA2FA92F982F82
:102300008827282B392B4A2B5B2B8B8190E0A0E070
:10231000B0E0282B392B4A2B5B2B6C8170E080E0DE
:1023200090E0CB0177276627ED80FF2400E010E0E6
:10233000102F0F2DFE2CEE246E297F29802B912B40
:10234000EE80FF2400E010E06E297F29802B912B86
:10235000837090706B877C878D879E8743705070E9
:102360002F83388749875A87E885F985AA85BC85F0
:102370003E2F4F2F5A2F7B2F8D859E852E960FB681
:10238000F894DEBF0FBECDBFCF91DF911F910F91AB
:10239000FF90EF900895FFCFFFCFAF92BF92CF9203
:1023A000DF92EF92FF920F931F93DF93CF93CDB7FE
:1023B000DEB7A0970FB6F894DEBF0FBECDBF0E9468
:1023C0003111298F3A8F4B8F5C8F6D8F7E8F8F8F5E
:1023D00098A3DE011196FE01799688E001900D9296
:1023E0008150E1F7A090F801B090F901C090FA0196
:1023F000D090FB0169817A818B819C810E940705C5
:102400007B018C01C601B50123E333E343E75FE3BE
:102410000E941F029B01AC01C801B7010E94F2019A
:1024200069877A878B879C87A60195010E94C101E5
:102430006D877E878F87988BA8EFB1E0FE01399674
:1024400088E001900D928150E1F7A0904C02B0908D
:102450004D02C0904E02D0904F026D817E818F81DF
:1024600098850E9407057B018C01C601B50123E315
:1024700033E343E75FE30E941F029B01AC01C80105
:10248000B7010E94F201698B7A8B8B8B9C8BA60122
:1024900095010E94C1016D8B7E8B8F8B988FACE470
:1024A000B2E0FE01719688E001900D928150E1F753
:1024B0006091FC017091FD018091FE019091FF01FE
:1024C00040E052E00E94FE0E2091F0013091F101B7
:1024D0004091F2015091F3012093EC013093ED0112
:1024E0004093EE015093EF01E090EC01F090ED018C
:1024F0000091EE011091EF012BE73FE14BE75EE326
:102500000E941F025B016C01C801B70123E430E7A0
:1025100042E05FE30E941F029B01AC01C601B501CE
:102520000E94F2016093F0017093F1018093F20137
:102530009093F3016091EC017091ED018091EE01B7
:102540009091EF012091F0013091F1014091F20161
:102550005091F3010E94F2016093F4017093F50130
:102560008093F6019093F7016091F4017091F50169
:102570008091F6019091F7010E94490020E030E03F
:1025800040E050E00E946710E0908D01F0908E01D5
:1025900000918F01109190016091FC017091FD01FB
:1025A0008091FE019091FF012091FC013091FD018D
:1025B0004091FE015091FF010E941F029B01AC015E
:1025C000C801B7010E94F20160938D0170938E01E2
:1025D00080938F0190939001E0909101F09092018F
:1025E00000919301109194016091500270915102F9
:1025F00080915202909153022091500230915102E9
:1026000040915202509153020E941F029B01AC0163
:10261000C801B7010E94F201609391017093920189
:1026200080939301909394018091990190919A01E4
:10263000019690939A01809399016091F4017091B1
:10264000F5018091F6019091F7010E94500D8130C3
:1026500069F58091990190919A01892B39F18091C6
:102660009B0190919C01019690939C0180939B010A
:102670006091E8017091E9018091EA019091EB018C
:10268000E0909501F09096010091970110919801CA
:102690000E9449005B016C01C801B7010E9449001A
:1026A0009B01AC01C601B5010E943A10A0960FB67D
:1026B000F894DEBF0FBECDBFCF91DF911F910F9178
:1026C000FF90EF90DF90CF90BF90AF900895DF9391
:1026D000CF93CDB7DEB760970FB6F894DEBF0FBECD
:1026E000CDBF0E94311129873A874B875C876D8760
:1026F0007E878F87988BDE011196FE01399688E0E0
:1027000001900D928150E1F769817A818B819C81E2
:102710002D813E814F8158850E94671060960FB6CB
:10272000F894DEBF0FBECDBFCF91DF9108950E9418
:1027300011088EEA68E040E70E9409118EEA69E01C
:1027400043E00E9409118EEA6AE04FE20E940911FB
:102750008EEA61E141E20E9409118EEA6CE04FE1EC
:102760000E9409118EEA6DE04FE10E9409118EEA84
:1027700064E040E00E9409118EEA65E040E00E94BA
:1027800009118EEA66E040E00E94091180E00E9493
:10279000490880E040E050E060E070E42EEA3FE06D
:1027A0000E949E0A80E090E0A0E0B0E08093F801F3
:1027B0009093F901A093FA01B093FB018093FC017F
:1027C0009093FD01A093FE01B093FF0180934C0212
:1027D00090934D02A0934E02B0934F02809350020B
:1027E00090935102A0935202B0935302109241026F
:1027F000ECE3F2E0119280839183A283B383809310
:10280000F4019093F501A093F601B093F701ECEE7B
:10281000F1E081939193A193B19380839183A283FB
:10282000B383109254028093C0019093C101A0938E
:10283000C201B093C3018093430290934402A093DA
:102840004502B093460210924B021092420210923F
:102850004702109248021092490210924A020895CB
:1028600082E062E041E00E94630C0895CF93DF9321
:1028700082E062E041E00E94E00B82E062E040E042
:102880000E94630C0E94F5070E949713C0E0D0E0FD
:102890000E94CD1121968FE0C03AD807C9F7FFCF2B
:1028A00085E40E9475078BE20E9475078DE20E9405
:1028B00075070895991B79E004C0991F961708F0D1
:1028C000961B881F7A95C9F7809508952F923F929D
:1028D0004F925F926F927F928F929F92AF92BF9230
:1028E000CF92DF92EF92FF920F931F93CF93DF93DC
:1028F000CDB7DEB7CA1BDB0B0FB6F894DEBF0FBE39
:10290000CDBF09942A88398848885F846E847D8485
:102910008C849B84AA84B984C884DF80EE80FD8087
:102920000C811B81AA81B981CE0FD11D0FB6F894FD
:0E293000DEBF0FBECDBFED010895F894FFCFBE
:10293E000000000000000000000102020303030378
:10294E000404040404040404050505050505050531
:10295E000505050505050505060606060606060611
:10296E0006060606060606060606060606060606F9
:10297E0006060606060606060707070707070707E1
:10298E0007070707070707070707070707070707C9
:10299E0007070707070707070707070707070707B9
:1029AE0007070707070707070707070707070707A9
:1029BE000707070707070707080808080808080891
:1029CE000808080808080808080808080808080879
:1029DE000808080808080808080808080808080869
:1029EE000808080808080808080808080808080859
:1029FE000808080808080808080808080808080849
:102A0E000808080808080808080808080808080838
:102A1E000808080808080808080808080808080828
:102A2E000808080808080808080808080808080818
:082A3E00080808080808080850
:00000001FF
