:100000000C942A000C94360B0C945D0B0C94840B0E
:100010000C9456090C94A5090C94FB090C94470008
:100020000C9447000C94220A0C94B1080C9400091B
:100030000C9447000C949E070C94C6070C94D507AB
:100040000C9447000C9447000C9447000C94470014
:100050000C94470011241FBECFE5D8E0DEBFCDBF12
:1000600011E0A0E6B0E0E0E3FCE202C005900D92F2
:10007000A438B107D9F712E0A4E8B1E001C01D929D
:10008000A33DB107E1F70E9490150C9416160C944D
:100090000000EF92FF920F931F937B018C0120E0F1
:1000A00030E040E05FE40E94F50388238CF0C80153
:1000B000B70120E030E040E05FE40E94C1010E940F
:1000C000B3049B01AC01205030404040504806C072
:1000D000C801B7010E94B3049B01AC01B901CA0178
:1000E0001F910F91FF90EF900895A0E0B0E0EBE733
:1000F000F0E00C94DF15DC012B01FA019C919230A9
:1001000008F439C1EB018881823008F433C194309E
:1001100069F4843009F02FC111969C91119789815F
:10012000981709F428C1A0E6B0E025C1843009F48D
:1001300021C18230A9F4923009F01DC19A01AD01AC
:1001400088E0EA010990AE01E90109929E0181501F
:10015000C1F7E201898111969C918923818308C1AD
:10016000923009F407C112962D903C901397EB0141
:100170008A819B811496AD90BD90CD90DC901797AD
:10018000EC80FD800E811F819101281B390BB90184
:1001900037FF04C066277727621B730B6032710537
:1001A0000CF061C0121613066CF537014801062EDB
:1001B00004C096948794779467940A94D2F721E0C8
:1001C00030E040E050E004C0220F331F441F551FB1
:1001D0006A95D2F721503040404050402E213F21B7
:1001E00040235123211531054105510521F021E01E
:1001F00030E040E050E079018A01E628F72808293C
:1002000019293CC0232BD1F1260E371E350146019A
:10021000062E04C096948794779467940A94D2F734
:1002200021E030E040E050E004C0220F331F441FC3
:10023000551F6A95D2F721503040404050402A2146
:100240003B214C215D21211531054105510521F04E
:1002500021E030E040E050E059016A01A628B728CB
:10026000C828D9280BC0821593052CF01C01AA249C
:10027000BB24650103C0EE24FF24870111969C91E5
:10028000D20111968C91981709F445C0992339F041
:10029000A80197012A193B094C095D0906C0A6016E
:1002A00095012E193F09400B510B57FD08C01182D3
:1002B0003382228224833583468357831DC081E0A5
:1002C00081833382228288279927DC01821B930B4A
:1002D000A40BB50B84839583A683B7830DC0220F2F
:1002E000331F441F551F24833583468357838281E0
:1002F000938101979383828324813581468157813D
:10030000DA01C9010197A109B1098F5F9F4FAF4F72
:10031000BF4328F30BC0918333822282EA0CFB1C7B
:100320000C1D1D1DE482F5820683178383E0808304
:10033000248135814681578157FF1AC0C901AA27F8
:1003400097FDA095BA2F81709070A070B0705695EF
:10035000479537952795822B932BA42BB52B848318
:100360009583A683B7838281938101969383828349
:10037000DF0101C0D201CD01CDB7DEB7E2E10C94BF
:10038000FB15A0E2B0E0E7ECF1E00C94EB1569831B
:100390007A838B839C832D833E834F835887E9E048
:1003A000EE2EF12CEC0EFD1ECE010196B7010E943F
:1003B000A4068E010F5E1F4FCE010596B8010E9464
:1003C000A4068A8991E089278A8BC701B801AE010A
:1003D000475E5F4F0E9475000E94CF05A096E6E041
:1003E0000C940716A0E2B0E0E8EFF1E00C94EB15F6
:1003F00069837A838B839C832D833E834F835887C5
:10040000F9E0EF2EF12CEC0EFD1ECE010196B701A6
:100410000E94A4068E010F5E1F4FCE010596B80103
:100420000E94A406C701B801AE01475E5F4F0E945B
:1004300075000E94CF05A096E6E00C940716A0E296
:10044000B0E0E5E2F2E00C94DF1569837A838B83F8
:100450009C832D833E834F835887CE010196BE0136
:10046000675F7F4F0E94A406CE010596BE016F5EB6
:100470007F4F0E94A4069985923088F08989823046
:10048000C8F0943019F4823051F404C0843029F457
:10049000923081F480E690E0C6C0923049F420E0CA
:1004A0009A858A89981321E02A87CE010996BBC0D4
:1004B000823049F420E09A858A89981321E02A8BBA
:1004C000CE014196B0C02D843E844F8458886D88FB
:1004D0007E888F88988CEE24FF248701AA24BB2471
:1004E000650140E050E060E070E0E0E0F0E0C10174
:1004F00081709070892BE9F0E60CF71C081D191D1E
:100500009A01AB012A0D3B1D4C1D5D1D80E090E062
:10051000A0E0B0E0E614F7040805190520F481E036
:1005200090E0A0E0B0E0BA01A901480F591F6A1F8E
:100530007B1FAA0CBB1CCC1CDD1C97FE08C081E0F5
:1005400090E0A0E0B0E0A82AB92ACA2ADB2A3196B6
:10055000E032F10549F0660C771C881C991C569412
:10056000479437942794C3CFFA85EA892B893C892D
:100570008B859C85280F391F2E5F3F4F17C0CA01FE
:1005800081709070892B61F016950795F794E79428
:1005900080E090E0A0E0B0E8E82AF92A0A2B1B2BC3
:1005A00076956795579547952F5F3F4F77FDE7CF36
:1005B0000CC0440F551F661F771F17FD4160EE0CDE
:1005C000FF1C001F111F21503040403090E05907A0
:1005D00090E0690790E4790760F32B8F3C8FDB0193
:1005E000CA018F779070A070B07080349105A1051A
:1005F000B10561F447FD0AC0E114F10401051105DC
:1006000029F0405C5F4F6F4F7F4F40781A8EFE1786
:1006100011F081E08A8F4D8F5E8F6F8F78A383E01A
:10062000898FCE0149960E94CF05A096E2E10C94F5
:10063000FB15A8E1B0E0EFE1F3E00C94E715698366
:100640007A838B839C832D833E834F835887B9E0C5
:10065000EB2EF12CEC0EFD1ECE010196B7010E948F
:10066000A4068E010F5E1F4FCE010596B8010E94B1
:10067000A4062985223008F47EC03989323010F46E
:10068000B8017CC08A859A8989278A87243011F02D
:10069000223031F4231709F06EC060E670E06EC0BE
:1006A000343039F41D861E861F86188A1C861B86E8
:1006B00004C0323021F484E08987B7015FC02B8504
:1006C0003C858B899C89281B390B3C872B87ED84C3
:1006D000FE840F851889AD88BE88CF88D88CEA142F
:1006E000FB040C051D0540F4EE0CFF1C001F111F40
:1006F000215030403C872B8720E030E040E050E044
:1007000080E090E0A0E0B0E460E070E0EA14FB0478
:100710000C051D0540F0282B392B4A2B5B2BEA18C2
:10072000FB080C091D09B695A79597958795EE0CC2
:10073000FF1C001F111F6F5F7F4F6F31710531F775
:10074000DA01C9018F779070A070B0708034910584
:10075000A105B10561F427FD0AC0E114F10401050A
:10076000110529F0205C3F4F4F4F5F4F20782D87B8
:100770003E874F87588BBE01675F7F4FCB010E943A
:10078000CF056896EAE00C940316A8E1B0E0EBEC24
:10079000F3E00C94EB1569837A838B839C832D8320
:1007A0003E834F83588789E0E82EF12CEC0EFD1E26
:1007B000CE010196B7010E94A4068E010F5E1F4F65
:1007C000CE010596B8010E94A4068985823040F0CA
:1007D0008989823028F0C701B8010E941C0701C036
:1007E0008FEF6896E6E00C940716A8E1B0E0EBEF17
:1007F000F3E00C94EB1569837A838B839C832D83C0
:100800003E834F83588789E0E82EF12CEC0EFD1EC5
:10081000CE010196B7010E94A4068E010F5E1F4F04
:10082000CE010596B8010E94A4068985823040F069
:100830008989823028F0C701B8010E941C0701C0D5
:100840008FEF6896E6E00C940716A8E1B0E0EBE2C3
:10085000F4E00C94EB1569837A838B839C832D835E
:100860003E834F83588789E0E82EF12CEC0EFD1E65
:10087000CE010196B7010E94A4068E010F5E1F4FA4
:10088000CE010596B8010E94A4068985823040F009
:100890008989823028F0C701B8010E941C0701C075
:1008A00081E06896E6E00C940716A8E0B0E0EBE57E
:1008B000F4E00C94E8159B01AC0183E08983DA0134
:1008C000C9018827B7FD83959927AA27BB27B82E8A
:1008D000211531054105510519F482E089833AC09B
:1008E0008823A9F0203080E0380780E0480780E8BE
:1008F000580729F460E070E080E09FEC30C0EE24FF
:10090000FF248701E21AF30A040B150B02C07901D8
:100910008A018EE1C82ED12CDC82CB82ED82FE8250
:100920000F831887C801B7010E9480050197181628
:10093000190684F4082E04C0EE0CFF1C001F111FC2
:100940000A94D2F7ED82FE820F831887C81AD90A5B
:10095000DC82CB82BA82CE0101960E94CF05289616
:10096000E9E00C940416ACE0B0E0E9EBF4E00C94A0
:10097000EF1569837A838B839C83CE010196BE0138
:100980006B5F7F4F0E94A4068D81823061F18230BF
:1009900050F1843021F48E81882351F12EC02F81B3
:1009A000388537FD20C06E812F3131051CF066235C
:1009B000F9F023C08EE190E0821B930B29853A85E4
:1009C0004B855C8504C056954795379527958A9544
:1009D000D2F76623B1F050954095309521953F4F61
:1009E0004F4F5F4F0EC020E030E040E050E009C0C4
:1009F0002FEF3FEF4FEF5FE704C020E030E040E033
:100A000050E8B901CA012C96E2E00C940B16A8E05C
:100A1000B0E0EDE0F5E00C94E7157B018C01611589
:100A200071058105910519F482E0898360C083E036
:100A300089838EE1C82ED12CDC82CB82ED82FE82AE
:100A40000F831887C801B7010E948005FC01319708
:100A5000F7FF3BC0222733272E1B3F0B57016801AE
:100A6000022E04C0D694C794B794A7940A94D2F7E0
:100A700040E050E060E070E081E090E0A0E0B0E0B5
:100A800004C0880F991FAA1FBB1F2A95D2F7019790
:100A9000A109B1098E219F21A023B1230097A105AF
:100AA000B10521F041E050E060E070E04A295B29A7
:100AB0006C297D294D835E836F8378878EE190E07A
:100AC0008E1B9F0B9C838B8312C0309781F00E2E60
:100AD00004C0EE0CFF1C001F111F0A94D2F7ED8218
:100AE000FE820F831887CE1ADF0ADC82CB821A823D
:100AF000CE0101960E94CF052896EAE00C940316D9
:100B0000EF92FF920F931F937B018C0180E0E81618
:100B100080E0F80681E0080780E0180788F48FEF8E
:100B2000E816F1040105110531F028F088E090E0A5
:100B3000A0E0B0E017C080E090E0A0E0B0E012C01C
:100B400080E0E81680E0F80680E0080781E01807FA
:100B500028F088E190E0A0E0B0E004C080E190E0FF
:100B6000A0E0B0E020E230E040E050E0281B390B8C
:100B70004A0B5B0B04C016950795F794E7948A958A
:100B8000D2F7F701E859FF4F8081281B310941094D
:100B90005109C9011F910F91FF90EF900895DF92C5
:100BA000EF92FF920F931F93FC01E480F580068182
:100BB0001781D1808081823048F480E090E0A0E10C
:100BC000B0E0E82AF92A0A2B1B2BA5C0843009F4CF
:100BD0009FC0823021F4EE24FF24870105C0E11478
:100BE000F1040105110519F4E0E0F0E096C062811E
:100BF00073819FEF623879070CF05BC022E83FEF0A
:100C0000261B370B2A3131052CF020E030E040E084
:100C100050E02AC0B801A701022E04C0769567955E
:100C2000579547950A94D2F781E090E0A0E0B0E0B4
:100C300004C0880F991FAA1FBB1F2A95D2F70197DE
:100C4000A109B1098E219F21A023B1230097A105FD
:100C5000B10521F081E090E0A0E0B0E09A01AB01A5
:100C6000282B392B4A2B5B2BDA01C9018F77907027
:100C7000A070B07080349105A105B10539F427FF4B
:100C800009C0205C3F4F4F4F5F4F04C0215C3F4F76
:100C90004F4F5F4FE0E0F0E02030A0E03A07A0E0E7
:100CA0004A07A0E45A0710F0E1E0F0E079018A0178
:100CB00027C06038710564F5FB01E158FF4FD8018A
:100CC000C7018F779070A070B07080349105A10536
:100CD000B10539F4E7FE0DC080E490E0A0E0B0E09B
:100CE00004C08FE390E0A0E0B0E0E80EF91E0A1F18
:100CF0001B1F17FF05C016950795F794E7943196CB
:100D000087E016950795F794E7948A95D1F705C083
:100D1000EE24FF248701EFEFF0E06E2F6795662742
:100D20006795902F9F77D794DD24D7948E2F869543
:100D3000492F462B582F5D29B701CA011F910F91EA
:100D4000FF90EF90DF900895FC01DB01408151811D
:100D50002281622F6F7770E0221F2227221F93814A
:100D6000892F880F822B282F30E0991F9927991FF0
:100D700011969C93119721153105A9F5411551053F
:100D80006105710511F482E037C082E89FEF139688
:100D90009C938E9312979A01AB0167E0220F331F49
:100DA000441F551F6A95D1F783E08C930DC0220F25
:100DB000331F441F551F12968D919C9113970197D5
:100DC00013969C938E931297203080E0380780E032
:100DD000480780E4580758F314962D933D934D939C
:100DE0005C93179708952F3F310579F4411551050C
:100DF0006105710519F484E08C93089564FF03C0C4
:100E000081E08C9312C01C9210C02F573040139673
:100E10003C932E93129783E08C9387E0440F551FE9
:100E2000661F771F8A95D1F7706414964D935D9372
:100E30006D937C93179708951F93DC01FB019C91A0
:100E4000923008F447C08081823008F443C0943067
:100E500051F411961C91843099F58181682F70E0CE
:100E6000611B71093FC0843021F0923031F482302F
:100E7000B9F18181882389F12DC011961C911197B8
:100E80008230F1F081811817D9F412962D913C919E
:100E90001397828193818217930794F0281739075B
:100EA000BCF014968D919D910D90BC91A02D248144
:100EB000358146815781281739074A075B0718F49F
:100EC000112341F00AC082179307A407B50740F425
:100ED000112319F061E070E005C06FEF7FEF02C0F1
:100EE00060E070E0CB011F9108955D9BFECF8CB94F
:100EF0000895FC0104C05D9BFECF8CB931968081C2
:100F00008823C9F708955F9BFECF8CB10895DC015B
:100F10005F9BFECF8CB18C9390E008C09F5F5F9B7E
:100F2000FECF8CB1FD01E90FF11D8083FD01E90FBA
:100F3000F11D8081882391F7108208951F920F92EE
:100F40000FB60F9211242F933F934F935F936F939C
:100F50007F938F939F93AF93BF93EF93FF938CB146
:100F6000E091D801F091D9010995FF91EF91BF91DE
:100F7000AF919F918F917F916F915F914F913F9131
:100F80002F910F900FBE0F901F9018951F920F92E8
:100F90000FB60F9211248F93809184018CB98F9199
:100FA0000F900FBE0F901F9018951F920F920FB6C3
:100FB0000F9211240F900FBE0F901F9018950F9352
:100FC0001F938C010E94180B579A1093D90100931C
:100FD000D8011F910F9108951F93182F0E94180B8D
:100FE000559A109384011F91089583E389B910BC29
:100FF00080B58F74806880BD80B58777806880BD3C
:1010000080B5866880BD529883E060E040E00E9431
:10101000E00B83E061E041E00E94E00B549A539AB8
:10102000089582E080B982B984E086BF089584EA99
:1010300086BF06B607FEFDCF089584E986BF0895F2
:1010400083B984E886BF06B607FEFDCF0895880FF2
:10105000862B83B984E886BF06B607FEFDCF0895C8
:1010600084EC86BF06B607FEFDCF83B1089584E801
:1010700086BF06B607FEFDCF83B1089586B78068A8
:1010800086BF06B607FEFDCF83B1089581B1887F84
:101090000895813089F0813018F08230E9F406C07B
:1010A00083B780788860836083BF089585B5807832
:1010B0008866826085BD08958FB58F738FBD8FB5AB
:1010C0008F7C8FBD8EB5887F82608EBD8FB58C7F03
:1010D0008FBD8EB5877E8EBD0895813049F08130F9
:1010E00018F0823039F402C062BF089564BD0895DB
:1010F0007DBD6CBD0895813049F0813018F082309B
:1011000039F402C06CBF089563BD08957BBD6ABD0C
:1011100008959BBD8ABD089599BD88BD089597BD6A
:1011200086BD089526B537B5C90108959093E501A8
:101130008093E40108959093E7018093E601089578
:1011400089B78F7D89BF0895882319F0813041F4D4
:1011500004C08EB580648EBD08958EB58F7B8EBD24
:1011600008951F920F920FB60F9211242F933F9361
:101170004F935F936F937F938F939F93AF93BF939F
:10118000EF93FF938091910190919201A09193012F
:10119000B09194010196A11DB11D8093910190938E
:1011A0009201A0939301B093940120919501309105
:1011B0009601409197015091980182179307A407D7
:1011C000B50769F410929101109292011092930167
:1011D00010929401E091E001F091E1010995FF91F5
:1011E000EF91BF91AF919F918F917F916F915F919F
:1011F0004F913F912F910F900FBE0F901F90189518
:101200001F920F920FB60F9211242F933F934F937B
:101210005F936F937F938F939F93AF93BF93EF935E
:10122000FF9380918D0190918E01A0918F01B091DB
:1012300090010196A11DB11D80938D0190938E01A7
:10124000A0938F01B0939001209195013091960168
:10125000409197015091980182179307A407B50711
:10126000A1F410928D0110928E0110928F011092B4
:10127000900160919D0170919E0180E00E946D0837
:10128000E091DA01F091DB010995FF91EF91BF91B7
:10129000AF919F918F917F916F915F914F913F910E
:1012A0002F910F900FBE0F901F9018951F920F92C5
:1012B0000FB60F9211242F933F934F935F936F9329
:1012C0007F938F939F93AF93BF93EF93FF938091FF
:1012D000890190918A01A0918B01B0918C010196B6
:1012E000A11DB11D8093890190938A01A0938B0168
:1012F000B0938C012091990130919A0140919B010A
:1013000050919C0182179307A407B50769F41092C6
:10131000890110928A0110928B0110928C01E09148
:10132000DE01F091DF010995FF91EF91BF91AF913F
:101330009F918F917F916F915F914F913F912F91ED
:101340000F900FBE0F901F9018951F920F920FB61F
:101350000F9211242F933F934F935F936F937F933B
:101360008F939F93AF93BF93EF93FF9380918501EA
:1013700090918601A0918701B09188010196A11DED
:10138000B11D8093850190938601A0938701B0934E
:1013900088012091990130919A0140919B015091CF
:1013A0009C0182179307A407B507A1F41092850149
:1013B0001092860110928701109288016091A1011C
:1013C0007091A20182E00E946D08E091E201F0912B
:1013D000E3010995FF91EF91BF91AF919F918F919B
:1013E0007F916F915F914F913F912F910F900FBE21
:1013F0000F901F9018951F920F920FB60F92112405
:101400002F933F934F935F936F937F938F939F930C
:10141000AF93BF93EF93FF93E091E601F091E70163
:101420000995FF91EF91BF91AF919F918F917F911E
:101430006F915F914F913F912F910F900FBE0F9041
:101440001F9018951F920F920FB60F9211242F9391
:101450003F934F935F936F937F938F939F93AF933C
:10146000BF93EF93FF93E091E401F091E5010995BB
:10147000FF91EF91BF91AF919F918F917F916F916C
:101480005F914F913F912F910F900FBE0F901F9042
:1014900018958FB58E7F8FBD8FB58D7F8FBD8EB523
:1014A000877F8EBD8EB58F7E8EBD8EB580648EBDDE
:1014B00089B7806289BF89B7846089BF83E066E0AD
:1014C00040E00E94E00B8EB58E7F8EBD8EB58260AF
:1014D0008EBD8EB58B7F8EBD0895EF92FF920F93D8
:1014E0001F937A018B01882319F0823011F506C011
:1014F00081E063E041E00E94E00B1BC083E067E015
:1015000041E00E94E00BC801B70120E030E048EC68
:1015100052E40E94190320E030E04FE753E40E94B8
:101520001F020E9449009B01AC0182E0B9010E94A8
:101530007B081F910F91FF90EF900895DF92EF923B
:10154000FF920F931F93CF93DF93D82E7A018B01D5
:10155000E9010E94180BDD2029F081E0D81609F07E
:101560005FC056C0C801B70120E030E04AE754E44C
:101570000E9419037B018C0120E030E040E050E044
:101580000E9419030E9449009B01AC016F3F710545
:101590008105910509F088F480E0B9010E947B087B
:1015A00081E090E0A0E0B0E08093950190939601F7
:1015B000A0939701B093980123C080E06AEF70E098
:1015C0000E947B08C801B70120E034E244EF5AE4EE
:1015D0000E941F0220E030E040E85CE30E941F020E
:1015E00020E030E04AE753E40E9419030E944900DA
:1015F0006093950170939601809397019093980161
:10160000D093E101C093E00189B7826089BF08C02F
:10161000D093E501C093E401D093DD01C093DC01D8
:10162000DF91CF911F910F91FF90EF90DF90089580
:101630008FB780688FBF08958FB78F778FBF08955A
:10164000613051F0613018F0623079F40AC0909343
:10165000EB018093EA0108959093E9018093E801FA
:1016600008959093ED018093EC0108951F920F92DD
:101670000FB60F9211242F933F934F935F936F9365
:101680007F938F939F93AF93BF93EF93FF93E091DB
:10169000EA01F091EB010995FF91EF91BF91AF91B4
:1016A0009F918F917F916F915F914F913F912F917A
:1016B0000F900FBE0F901F9018951F920F920FB6AC
:1016C0000F9211242F933F934F935F936F937F93C8
:1016D0008F939F93AF93BF93EF93FF93E091E801B4
:1016E000F091E9010995FF91EF91BF91AF919F9121
:1016F0008F917F916F915F914F913F912F910F90BB
:101700000FBE0F901F9018951F920F920FB60F9259
:1017100011242F933F934F935F936F937F938F93F6
:101720009F93AF93BF93EF93FF93E091EC01F09100
:10173000ED010995FF91EF91BF91AF919F918F912D
:101740007F916F915F914F913F912F910F900FBEBD
:101750000F901F90189581E062E040E00E94E00B3E
:1017600081E062E041E00E94630C8BB780628BBF36
:1017700084B78F7B84BF089583E063E040E00E94DC
:10178000E00B83E063E041E00E94630C8BB780686C
:101790008BBF85B7837F886085BF089583E062E053
:1017A00040E00E94E00B83E062E041E00E94630CB5
:1017B0008BB780648BBF85B78C7F826085BF0895AF
:1017C0008130E9F0813030F0823071F1833009F0FE
:1017D00054C03FC08AB321E030E0062E02C0220F81
:1017E000331F0A94E2F720952823842F90E002C04B
:1017F000880F991F6A95E2F7282B2ABB089587B3B3
:1018000021E030E0062E02C0220F331F0A94E2F7D7
:1018100020952823842F90E002C0880F991F6A9595
:10182000E2F7282B27BB089584B321E030E0062E91
:1018300002C0220F331F0A94E2F720952823842F39
:1018400090E002C0880F991F6A95E2F7282B24BB0D
:10185000089581B321E030E0062E02C0220F331F2D
:101860000A94E2F720952823842F90E002C0880F85
:10187000991F6A95E2F7282B21BB0895813071F0FA
:10188000813028F0823089F08330E1F415C066237E
:1018900011F41ABA08958FEF8ABB0895662311F4E4
:1018A00017BA08958FEF87BB0895662311F414BA11
:1018B00008958FEF84BB0895662311F411BA08953B
:1018C0008FEF81BB08958130E9F0813030F08230B4
:1018D00071F1833009F054C03FC08BB321E030E098
:1018E000062E02C0220F331F0A94E2F72095282308
:1018F000842F90E002C0880F991F6A95E2F7282B89
:101900002BBB089588B321E030E0062E02C0220FE1
:10191000331F0A94E2F720952823842F90E002C019
:10192000880F991F6A95E2F7282B28BB089585B385
:1019300021E030E0062E02C0220F331F0A94E2F7A6
:1019400020952823842F90E002C0880F991F6A9564
:10195000E2F7282B25BB089582B321E030E0062E64
:1019600002C0220F331F0A94E2F720952823842F08
:1019700090E002C0880F991F6A95E2F7282B22BBDE
:101980000895813049F0813028F0823039F0833079
:1019900041F406C06BBB089568BB089565BB08950C
:1019A00062BB0895813049F0813028F0823039F0EF
:1019B0008330B1F40DC089B303C086B301C083B3D3
:1019C00090E002C0959587956A95E2F78170089539
:1019D00080B390E002C0959587956A95E2F7817093
:1019E0000895813049F0813028F0823039F0833019
:1019F00041F406C089B3089586B3089583B308956A
:101A000080B30895813091F0813028F08230C9F0A0
:101A1000833061F521C02BB381E090E002C0880FD4
:101A2000991F6A95E2F728272BBB089528B381E018
:101A300090E002C0880F991F6A95E2F7282728BB1B
:101A4000089525B381E090E002C0880F991F6A9540
:101A5000E2F7282725BB089522B381E090E002C079
:101A6000880F991F6A95E2F7282722BB08958130D5
:101A700059F0813028F0823059F0833081F40CC065
:101A80008BB380958BBB089588B3809588BB0895F0
:101A900085B3809585BB089582B3809582BB0895F8
:101AA000EF92FF920F931F937B018C0120E030E0B7
:101AB0004AEF54E40E94C50318164CF51092D00268
:101AC00080E090E0A0E0B0E08093D4019093D50155
:101AD000A093D601B093D7011092CB011092CC0104
:101AE0001092CD011092CE011092CF011092D00130
:101AF0001092D1011092D2011092D3011092C30220
:101B00001092C4021092C5021092C60222C18091A6
:101B1000D0028130B9F0813020F0823009F011C15B
:101B2000F1C0C801B70120E030E048E453E40E946E
:101B3000F50388230CF405C181E08093D002109254
:101B4000D301FFC0C801B7012091D4013091D50164
:101B50004091D6015091D7010E94C50318160CF58B
:101B60008091A5019091A601A091A701B091A80133
:101B7000880F991FAA1FBB1F8093CF019093D0019C
:101B8000A093D101B093D201C801B7010E944900CE
:101B90006093C3027093C4028093C5029093C602FF
:101BA000D0C02091CF013091D0014091D10150910E
:101BB000D2018091CB019091CC01A091CD01B09147
:101BC000CE0179018A01E81AF90A0A0B1B0BC80138
:101BD000B7012093CB013093CC014093CD015093BA
:101BE000CE01E114F1040105110529F460E070E073
:101BF00080E090E00AC00E9407059B01AC0160E014
:101C000070E68AE697E40E941903E0917E02F0E014
:101C1000EE0FFF1FEE0FFF1FE251FE4F6083718337
:101C20008283938380E090E0A0E0B0E08093BF02E5
:101C30009093C002A093C102B093C202EE24FF248D
:101C400087016091BF027091C0028091C1029091A2
:101C5000C202F701EE0FFF1FEE0FFF1FE251FE4F12
:101C600020813181428153810E94F2016093BF0241
:101C70007093C0028093C1029093C2020894E11C49
:101C8000F11C011D111D8AE0E816F1040105110582
:101C9000C1F680917E028F5F80937E0280917E02EA
:101CA0006AE00E94D31590937E028091C7028A3029
:101CB00028F48091C7028F5F8093C702E090BF0233
:101CC000F090C0020091C1021091C2026091C7025F
:101CD00070E0882777FD8095982F0E9455049B011E
:101CE000AC01C801B7010E941903609322027093EE
:101CF0002302809324029093250282E08093D002F5
:101D000081E028C0C801B7012091D4013091D501EC
:101D10004091D6015091D7010E94250488232CF4CC
:101D20008091D3018F5F8093D301C801B70120E078
:101D300030E048E453E40E942504882314F4109210
:101D4000D002E092D401F092D5010093D601109315
:101D5000D70180E01F910F91FF90EF9008956F924F
:101D60007F928F929F92AF92BF92CF92DF92EF922B
:101D7000FF920F931F93DF93CF93CDB7DEB72897D2
:101D80000FB6F894DEBF0FBECDBF5B016C01390109
:101D90004A01C801B7010E941F029B01AC01C601A4
:101DA000B5010E94F2017B018C01A40193010E9404
:101DB000C1016D837E838F839887E982FA820B83CA
:101DC0001C8329813A814B815C816D817E818F8169
:101DD000988528960FB6F894DEBF0FBECDBFCF9181
:101DE000DF911F910F91FF90EF90DF90CF90BF9008
:101DF000AF909F908F907F906F9008958F929F9259
:101E0000AF92BF92DF92EF92FF920F931F93CF9307
:101E1000DF934B015C01EA016DE3E62EF12CE40E49
:101E2000F51EDCAC0D2D10E0000F111F000F111F6F
:101E30000C0F1D1FF7016081718182819381F80170
:101E400020813181428153810E94C101F701608369
:101E5000718382839383F80180829182A282B3820C
:101E6000A50194010E94F201F701608371838283CE
:101E700093838D2D8F5F6FE00E94D3159CAFFE0181
:101E8000EF5BFF4F80818F3010F48F5F8083CF5BDB
:101E9000DF4F688170E0882777FD8095982F0E943A
:101EA00055049B01AC019A918A917A916A910E94A2
:101EB0001903A50194010E94C101DF91CF911F91E7
:101EC0000F91FF90EF90DF90BF90AF909F908F9019
:101ED00008958F929F92AF92BF92CF92DF92EF922E
:101EE000FF920F931F934A01FA01E480F580068167
:101EF0001781E082F182028313832BE73FE14BE7F6
:101F00005EE30E941F025B016C01C801B70123E47C
:101F100030E742E05FE30E941F029B01AC01C60173
:101F2000B5010E94F2019B01AC01F4016483758349
:101F300086839783C801B7010E94F201F40160878C
:101F40007187828793871F910F91FF90EF90DF90A9
:101F5000CF90BF90AF909F908F900895FC019B0110
:101F600080819181A281B38140E050E07FE0220F27
:101F7000331F441F551F7A95D1F7281B390B4A0B85
:101F80005B0B64E056954795379527956A95D1F791
:101F9000280F391F4A1F5B1F2083318342835383DD
:101FA0007FE056954795379527957A95D1F7C901E2
:101FB00008956F927F928F929F92AF92BF92DF921D
:101FC000EF92FF920F931F93CF93DF93D090C501B1
:101FD0002D2D30E0F901EE0FFF1FE158FD4F9183E9
:101FE0008083F9013B97EF71F070EE0FFF1FE1580E
:101FF000FD4F808191817C0100E010E05CE0EE0CFF
:10200000FF1C001F111F5A95D1F74CE6842E41E0AA
:10201000942EC0E0D0E059012AEE622E2FEF722EEE
:102020006A0C7B1CD301AC0FBD1FAF71B070AA0F3F
:10203000BB1FA158BD4FF501EC1BFD0BEF71F070FC
:10204000EE0FFF1FE158FD4F6D917C912081318192
:10205000620F731F80E090E0F401219131914F01F4
:1020600040E050E00E94B415E60EF71E081F191F4D
:102070002196CB30D105B1F6D394FFE1DF22D09287
:10208000C501A8019701EFE056954795379527952B
:10209000EA95D1F7C901DF91CF911F910F91FF9080
:1020A000EF90DF90BF90AF909F908F907F906F9058
:1020B0000895EF92FF920F931F93DC01CB012091C3
:1020C000B9013091BA013093D2022093D102E0904D
:1020D000C101F090C2010091C3011091C4019C01A3
:1020E00040E050E0AFE0220F331F441F551FAA9578
:1020F000D1F72E193F09400B510BF4E05695479547
:1021000037952795FA95D1F72E0D3F1D401F511F8A
:102110002093C1013093C2014093C3015093C40185
:10212000EFE05695479537952795EA95D1F7309387
:102130001D0220931C02821B930B0E94D90F9C014D
:102140009093BA018093B9014091D1025091D2028B
:102150004115510581F0009771F41092C001109261
:10216000BF0181E090E090931B0280931A021092CD
:10217000BC011092BB016091BF017091C00180E071
:1021800090E04217530710F481E090E086239723F4
:10219000892B21F03093BE012093BD0180E090E0B7
:1021A0002417350710F481E090E086239723892BCC
:1021B00021F03093BC012093BB0180E01F910F916F
:1021C000FF90EF900895EF92FF920F931F937B0182
:1021D00000E010E09C0140E050E0C801B7010E941F
:1021E000B4151F910F91FF90EF9008958091A50174
:1021F0009091A601A091A701B091A8010196A11DFF
:10220000B11D8093A5019093A601A093A701B0935F
:10221000A801089590E00E9475078BE290E00E946B
:1022200075078DE290E00E94750708951F93982F1F
:102230009F7082958F709C3091F09D3028F49A3079
:1022400061F09B30A1F407C09E3069F09E3048F0E9
:102250009F3069F40AC012E40CC011E40AC013E410
:1022600008C014E406C015E404C016E402C0192F27
:10227000105D8C3091F08D3028F48A3061F08B3015
:10228000A1F407C08E3069F08E3048F08F3069F4C9
:102290000AC082E40BC081E409C083E407C084E47F
:1022A00005C085E403C086E401C0805D90E00E9423
:1022B0007507812F90E00E9475078BE290E00E94E5
:1022C00075078DE290E00E9475071F910895EF92C7
:1022D000FF920F931F937B018C01862F0E94161192
:1022E0008F2D0E941611802F0E941611E12EFF24BF
:1022F000002711278E2D0E9416111F910F91FF901C
:10230000EF900895AF92BF92CF92DF92EF92FF923B
:102310000F931F937B018C0159016A0182E50E9492
:102320000A118EE40E940A11C801B7010E946711C8
:10233000C601B5010E9467116091A5017091A601C7
:102340008091A7019091A8010E9467111F910F91A0
:10235000FF90EF90DF90CF90BF90AF900895AF9235
:10236000BF92CF92DF92EF92FF920F931F937B0168
:102370008C0159016A0183E50E940A118EE40E94D2
:102380000A11C801B7010E946711C601B5010E9478
:1023900067116091A5017091A6018091A7019091AC
:1023A000A8010E9467111F910F91FF90EF90DF909D
:1023B000CF90BF90AF900895CF93DF93EC0103C00F
:1023C00090E00E94750789918823D1F78BE290E015
:1023D0000E9475078DE290E00E947507DF91CF9112
:1023E000089582E062E041E00E94E00B80ED97E01A
:1023F00028EC30E0F9013197F1F70197D9F782E045
:1024000062E041E00E94630C80ED97E028EC30E050
:10241000F9013197F1F70197D9F782E062E040E0E6
:102420000E94630C08950F931F93182F062F0E948C
:1024300017081695812F60E00E9427080E94460821
:102440008831B9F4802F0E9420080E944608883203
:1024500079F40E941708812F61E00E9427080E94EA
:102460003708182F0E941D08812F1F910F91089582
:10247000FFCFFFCFEF92FF920F931F938C017B0151
:102480008EEA6EEF0E941312F80180838EEA6FEFDE
:102490000E941312F70180831F910F91FF90EF901C
:1024A0000895FF920F931F93182F062FF42E0E946A
:1024B0001708812F869560E00E9427080E94460831
:1024C0008831B1F4802F0E9420080E94460888328B
:1024D00071F48F2D0E9420080E944608883231F442
:1024E0000E941D081F910F91FF900895FFCFFFCF0D
:1024F000FFCFEF92FF920F931F93DF93CF93CDB750
:10250000DEB72E970FB6F894DEBF0FBECDBF0E9488
:10251000170882E062E040E00E94630C87E560E01B
:102520000E9427080E944608883109F07DC087E094
:102530000E9420080E944608883209F074C00E9458
:10254000170887E561E00E9427088E010F5F1F4F83
:1025500086E0E82EF12CEC0EFD1E0E943008F801FA
:1025600081938F01EE15FF05C1F70E9437088E8316
:102570000E941D08298130E040E050E0A901332786
:1025800022278A8190E0A0E0B0E0BA2FA92F982FEF
:102590008827282B392B4A2B5B2B8B8190E0A0E0DE
:1025A000B0E0282B392B4A2B5B2B6C8170E080E04C
:1025B00090E0CB0177276627ED80FF2400E010E054
:1025C000102F0F2DFE2CEE246E297F29802B912BAE
:1025D000EE80FF2400E010E06E297F29802B912BF4
:1025E000837090706B877C878D879E874370507057
:1025F0002F83388749875A87E885F985AA85BC855E
:102600003E2F4F2F5A2F7B2F8D859E852E960FB6EE
:10261000F894DEBF0FBECDBFCF91DF911F910F9118
:10262000FF90EF900895FFCFFFCFDF93CF93CDB70B
:10263000DEB760970FB6F894DEBF0FBECDBF0E9425
:10264000791229873A874B875C876D877E878F87CA
:10265000988BDE011196FE01399688E001900D926B
:102660008150E1F769817A818B819C812D813E8146
:102670004F8158850E94AF1160960FB6F894DEBF67
:102680000FBECDBFCF91DF910895AF92BF92CF9291
:10269000DF92EF92FF920F931F93DF93CF93CDB70B
:1026A000DEB7A0970FB6F894DEBF0FBECDBF0E9475
:1026B0007912298F3A8F4B8F5C8F6D8F7E8F8F8F22
:1026C00098A3DE011196FE01799688E001900D92A3
:1026D0008150E1F7A0903202B0903302C0903402F2
:1026E000D090350269817A818B819C810E94070597
:1026F0007B018C01C601B50123E333E343E75FE3CC
:102700000E941F029B01AC01C801B7010E94F201A7
:1027100069877A878B879C87A60195010E94C101F2
:102720006D877E878F87988BA2E3B2E0FE01399692
:1027300088E001900D928150E1F7A090C802B0901E
:10274000C902C090CA02D090CB026D817E818F8178
:1027500098850E9407057B018C01C601B50123E322
:1027600033E343E75FE30E941F029B01AC01C80112
:10277000B7010E94F201698B7A8B8B8B9C8BA6012F
:1027800095010E94C1016D8B7E8B8F8B988FA8EC79
:10279000B2E0FE01719688E001900D928150E1F760
:1027A000609136027091370280913802909139021F
:1027B0004CE352E00E94FE0E20912A0230912B023F
:1027C00040912C0250912D02209326023093270233
:1027D0004093280250932902E0902602F0902702AD
:1027E00000912802109129022BE73FE14BE75EE3BD
:1027F0000E941F025B016C01C801B70123E430E7AE
:1028000042E05FE30E941F029B01AC01C601B501DB
:102810000E94F20160932A0270932B0280932C0293
:1028200090932D02609126027091270280912802D8
:102830009091290220912A0230912B0240912C0282
:1028400050912D020E94F20160932E0270932F028C
:10285000809330029093310260912E0270912F028A
:1028600080913002909131020E94490020E030E0D6
:1028700040E050E00E94AF11E090A901F090AA0161
:102880000091AB011091AC0160913602709137025A
:1028900080913802909139022091360230913702AE
:1028A00040913802509139020E941F029B01AC01F5
:1028B000C801B7010E94F2016093A9017093AA01B7
:1028C0008093AB019093AC01E090AD01F090AE012C
:1028D0000091AF011091B0016091CC027091CD02D6
:1028E0008091CE029091CF022091CC023091CD0206
:1028F0004091CE025091CF020E941F029B01AC0179
:10290000C801B7010E94F2016093AD017093AE015E
:102910008093AF019093B0018091B5019091B60181
:1029200001969093B6018093B50160912E0270914B
:102930002F0280913002909131020E94500D81301F
:1029400079F48091B5019091B601892B49F080917D
:10295000B7019091B80101969093B8018093B701A7
:10296000A0960FB6F894DEBF0FBECDBFCF91DF911A
:102970001F910F91FF90EF90DF90CF90BF90AF909D
:102980000895DF93CF93CDB7DEB760970FB6F89475
:10299000DEBF0FBECDBF0E94791229873A874B87D1
:1029A0005C876D877E878F87988BDE011196FE018D
:1029B000399688E001900D928150E1F769817A8122
:1029C0008B819C812D813E814F8158850E94AF1162
:1029D00060960FB6F894DEBF0FBECDBFCF91DF91EA
:1029E00008950E9411088EEA68E040E70E945112A3
:1029F0008EEA69E043E00E9451128EEA6AE04FE2FB
:102A00000E9451128EEA61E141E20E9451128EEA67
:102A10006CE04FE10E9451128EEA6DE04FE10E949E
:102A200051128EEA64E040E00E9451128EEA65E0A5
:102A300040E00E9451128EEA66E040E00E9451128E
:102A400080E00E94490880E040E050E060E070E4EF
:102A500026EF30E10E949E0A80E090E0A0E0B0E026
:102A60008093320290933302A0933402B0933502E4
:102A70008093360290933702A0933802B0933902C4
:102A80008093C8029093C902A093CA02B093CB026C
:102A90008093CC029093CD02A093CE02B093CF024C
:102AA00010927D02E8E7F2E0119280839183A28385
:102AB000B38380932E0290932F02A0933002B093A1
:102AC0003102E6E2F2E081939193A193B193808386
:102AD0009183A283B3831092D0028093EE019093EE
:102AE000EF01A093F001B093F1018093BF029093A6
:102AF000C002A093C102B093C2021092C70210920A
:102B00007E021092C3021092C4021092C50210926B
:102B1000C602089582E062E041E00E94630C0895DD
:102B2000CF93DF9382E062E041E00E94E00B82E01D
:102B300062E040E00E94630C0E94F5070E94F114DD
:102B4000C0E0D0E00E944513219684E0C03BD80746
:102B5000C9F7FFCF85E40E9475078BE20E947507D5
:102B60008DE20E9475070895629FD001739FF00166
:102B7000829FE00DF11D649FE00DF11D929FF00D0D
:102B8000839FF00D749FF00D659FF00D9927729F44
:102B9000B00DE11DF91F639FB00DE11DF91FBD01CF
:102BA000CF0111240895991B79E004C0991F96174D
:102BB00008F0961B881F7A95C9F7809508952F9283
:102BC0003F924F925F926F927F928F929F92AF92BD
:102BD000BF92CF92DF92EF92FF920F931F93CF930A
:102BE000DF93CDB7DEB7CA1BDB0B0FB6F894DEBFA1
:102BF0000FBECDBF09942A88398848885F846E84C7
:102C00007D848C849B84AA84B984C884DF80EE8010
:102C1000FD800C811B81AA81B981CE0FD11D0FB619
:102C2000F894DEBF0FBECDBFED010895F894FFCF3D
:102C30000000000000000000000102020303030383
:102C4000040404040404040405050505050505053C
:102C5000050505050505050506060606060606061C
:102C60000606060606060606060606060606060604
:102C700006060606060606060707070707070707EC
:102C800007070707070707070707070707070707D4
:102C900007070707070707070707070707070707C4
:102CA00007070707070707070707070707070707B4
:102CB000070707070707070708080808080808089C
:102CC0000808080808080808080808080808080884
:102CD0000808080808080808080808080808080874
:102CE0000808080808080808080808080808080864
:102CF0000808080808080808080808080808080854
:102D00000808080808080808080808080808080843
:102D10000808080808080808080808080808080833
:102D20000808080808080808080808080808080823
:102D300008080808080808081400ECFFAC00410166
:102D400043029F03500542075609640B3F0DB80E1E
:042D5000AC0F0010B4
:00000001FF
